:020000040800F2
:100000000000022065330008CD270008D52700082E
:10001000DD270008E5270008ED27000800000000A4
:10002000000000000000000000000000F5270008AC
:100030000328000800000000112800081F280008FD
:10004000B5330008B5330008B5330008B5330008F0
:10005000B5330008B5330008B5330008B5330008E0
:10006000B5330008B5330008B5330008B5330008D0
:10007000B5330008B5330008B5330008B5330008C0
:10008000B5330008B5330008B5330008B5330008B0
:10009000B5330008B5330008B5330008B5330008A0
:1000A000B5330008B5330008B5330008B533000890
:1000B0002D28000841280008B5330008B533000892
:1000C000B5330008B5330008B5330008B533000870
:1000D000B5330008B5330008B5330008B533000860
:1000E000B5330008B5330008B5330008B533000850
:1000F000B533000855280008B5330008B5330008AB
:10010000B5330008B533000869280008B533000886
:10011000B5330008B5330008B5330008B53300081F
:10012000B5330008B5330008B5330008B53300080F
:10013000B53300080000000000000000B5330008DF
:10014000B5330008B5330008B5330008B5330008EF
:10015000B5330008B5330008B5330008B5330008DF
:10016000B5330008B5330008B5330008B5330008CF
:10017000B5330008B5330008B533000800000000AF
:1001800000000000B533000800000000000000007F
:10019000B53300080000000000000000B53300087F
:1001A000000000000000000000000000B53300085F
:1001B000B5330008B5330008B5330008B53300087F
:0401C000B53300084B
:1001D00010B5054C237833B9044B13B10448AFF381
:1001E00000800123237010BD2002002000000000C9
:1001F0009CBA000808B5034B1BB103490348AFF391
:10020000008008BD00000000240200209CBA000805
:1002100010F8012B11F8013B012A28BF9A42F7D0B0
:10022000D01A70470000000000000000000000002D
:1002300001F0FF01102A2BDB10F0070F08D010F897
:10024000013B013A8B422DD010F0070F42B3F6D19B
:10025000F0B441EA012141EA014122F007047FF0B4
:1002600000070023F0E80256083C85EA010586EA0B
:10027000010685FA47F5A3FA87F586FA47F6A5FA47
:1002800087F68EB9EED1F0BC01F0FF0102F0070253
:1002900032B110F8013B013A83EA010313B1F8D1FE
:1002A0000020704701387047002D06BF35460338DF
:1002B000073815F0010F07D1013015F4807F02BF18
:1002C000013015F4C03F0130F0BC0138704700BF69
:1002D000034613F8012B002AFBD1181A0138704786
:1002E00081F0004102E000BF83F0004330B54FEAE7
:1002F00041044FEA430594EA050F08BF90EA020F54
:100300001FBF54EA000C55EA020C7FEA645C7FEAE6
:10031000655C00F0E2804FEA5454D4EB5555B8BF09
:100320006D420CDD2C4480EA020281EA030382EA7A
:10033000000083EA010180EA020281EA0303362D0C
:1003400088BF30BD11F0004F4FEA01314FF4801CDF
:100350004CEA113102D0404261EB410113F0004FF1
:100360004FEA03334CEA133302D0524263EB4303A8
:1003700094EA050F00F0A780A4F10104D5F1200E46
:100380000DDB02FA0EFC22FA05F2801841F10001A1
:1003900003FA0EF2801843FA05F359410EE0A5F175
:1003A00020050EF1200E012A03FA0EFC28BF4CF0A6
:1003B000020C43FA05F3C01851EBE37101F000455C
:1003C00007D54FF0000EDCF1000C7EEB00006EEB69
:1003D0000101B1F5801F1BD3B1F5001F0CD34908F3
:1003E0005FEA30004FEA3C0C04F101044FEA44524A
:1003F00012F5800F80F09A80BCF1004F08BF5FEAD1
:10040000500C50F1000041EB045141EA050130BDB0
:100410005FEA4C0C404141EB0101013C28BFB1F5C2
:10042000801FE9D291F0000F04BF01460020B1FA0D
:1004300081F308BF2033A3F10B03B3F120020CDAE0
:100440000C3208DD02F1140CC2F10C0201FA0CF0BE
:1004500021FA02F10CE002F11402D8BFC2F1200C23
:1004600001FA02F120FA0CFCDCBF41EA0C019040D9
:10047000E41AA2BF01EB0451294330BD6FEA040422
:100480001F3C1CDA0C340EDC04F11404C4F120020D
:1004900020FA04F001FA02F340EA030021FA04F31F
:1004A00045EA030130BDC4F10C04C4F1200220FA76
:1004B00002F001FA04F340EA0300294630BD21FAB4
:1004C00004F0294630BD94F0000F83F4801306BF7A
:1004D00081F480110134013D4EE77FEA645C18BF6E
:1004E0007FEA655C29D094EA050F08BF90EA020F05
:1004F00005D054EA000C04BF1946104630BD91EAFD
:10050000030F1EBF0021002030BD5FEA545C05D1FF
:100510004000494128BF41F0004130BD14F580043E
:100520003CBF01F5801130BD01F0004545F0FE41B2
:1005300041F470014FF0000030BD7FEA645C1ABFE7
:10054000194610467FEA655C1CBF0B46024650EA1E
:10055000013406BF52EA033591EA030F41F400214A
:1005600030BD00BF90F0000F04BF0021704730B5D0
:100570004FF4806404F132044FF000054FF00001A5
:1005800050E700BF90F0000F04BF0021704730B566
:100590004FF4806404F1320410F0004548BF40423B
:1005A0004FF000013EE700BF42004FEAE2014FEA90
:1005B00031014FEA02701FBF12F07F4393F07F4F6B
:1005C00081F06051704732F07F4208BF704793F06E
:1005D0007F4F04BF41F40021704730B54FF4607481
:1005E00001F0004521F000411CE700BF50EA010284
:1005F00008BF704730B54FF000050AE050EA01022D
:1006000008BF704730B511F0004502D5404261EB9C
:1006100041014FF4806404F132045FEA915C3FF4DD
:10062000D8AE4FF003025FEADC0C18BF03325FEA7A
:10063000DC0C18BF033202EBDC02C2F1200300FA2B
:1006400003FC20FA02F001FA03FE40EA0E0021FA50
:1006500002F11444BDE600BF70B54FF0FF0C4CF43E
:10066000E06C1CEA11541DBF1CEA135594EA0C0FF0
:1006700095EA0C0F00F0DEF82C4481EA030621EA2B
:100680004C5123EA4C5350EA013518BF52EA033566
:1006900041F4801143F4801338D0A0FB02CE4FF018
:1006A0000005E1FB02E506F00042E0FB03E54FF048
:1006B0000006E1FB03569CF0000F18BF4EF0010E40
:1006C000A4F1FF04B6F5007F64F5407404D25FEA3C
:1006D0004E0E6D4146EB060642EAC62141EA5551EF
:1006E0004FEAC52040EA5E504FEACE2EB4F1FD0C31
:1006F00088BFBCF5E06F1ED8BEF1004F08BF5FEAAF
:10070000500E50F1000041EB045170BD06F0004660
:1007100046EA010140EA020081EA0301B4EB5C040D
:10072000C2BFD4EB0C0541EA045170BD41F4801105
:100730004FF0000E013C00F3AB8014F1360FDEBF2A
:10074000002001F0004170BDC4F10004203C35DA06
:100750000C341BDC04F11404C4F1200500FA05F389
:1007600020FA04F001FA05F240EA020001F000422A
:1007700021F0004110EBD37021FA04F642EB0601A0
:100780005EEA430E08BF20EAD37070BDC4F10C04CA
:10079000C4F1200500FA04F320FA05F001FA04F28E
:1007A00040EA020001F0004110EBD37041F100017A
:1007B0005EEA430E08BF20EAD37070BDC4F1200585
:1007C00000FA05F24EEA020E20FA04F301FA05F2ED
:1007D00043EA020321FA04F001F0004121FA04F295
:1007E00020EA020000EBD3705EEA430E08BF20EA65
:1007F000D37070BD94F0000F0FD101F0004640009F
:1008000041EB010111F4801F08BF013CF7D041EA20
:10081000060195F0000F18BF704703F00046520024
:1008200043EB030313F4801F08BF013DF7D043EAF5
:100830000603704794EA0C0F0CEA135518BF95EAAB
:100840000C0F0CD050EA410618BF52EA4306D1D132
:1008500081EA030101F000414FF0000070BD50EA51
:10086000410606BF1046194652EA430619D094EADB
:100870000C0F02D150EA013613D195EA0C0F05D1C5
:1008800052EA03361CBF104619460AD181EA030119
:1008900001F0004141F0FE4141F470014FF00000D1
:1008A00070BD41F0FE4141F4780170BD70B54FF06C
:1008B000FF0C4CF4E06C1CEA11541DBF1CEA1355EC
:1008C00094EA0C0F95EA0C0F00F0A7F8A4EB0504CE
:1008D00081EA030E52EA03354FEA013100F08880C5
:1008E0004FEA03334FF0805545EA131343EA12638E
:1008F0004FEA022245EA111545EA10654FEA002643
:100900000EF000419D4208BF964244F1FD0404F5FB
:10091000407402D25B084FEA3202B61A65EB030557
:100920005B084FEA32024FF480104FF4002CB6EB14
:10093000020E75EB030E22BFB61A754640EA0C0094
:100940005B084FEA3202B6EB020E75EB030E22BFD4
:10095000B61A754640EA5C005B084FEA3202B6EB15
:10096000020E75EB030E22BFB61A754640EA9C00D4
:100970005B084FEA3202B6EB020E75EB030E22BFA4
:10098000B61A754640EADC0055EA060E18D04FEA62
:10099000051545EA16754FEA06164FEAC30343EA02
:1009A00052734FEAC2025FEA1C1CC0D111F4801FCF
:1009B0000BD141EA00014FF000004FF0004CB6E7C8
:1009C00011F4801F04BF01430020B4F1FD0C88BF67
:1009D000BCF5E06F3FF6AFAEB5EB030C04BFB6EB72
:1009E000020C5FEA500C50F1000041EB045170BD65
:1009F0000EF0004E4EEA113114EB5C04C2BFD4EB92
:100A00000C0541EA045170BD41F480114FF0000E15
:100A1000013C90E645EA060E8DE60CEA135594EA91
:100A20000C0F08BF95EA0C0F3FF43BAF94EA0C0F94
:100A30000AD150EA01347FF434AF95EA0C0F7FF409
:100A400025AF104619462CE795EA0C0F06D152EA5D
:100A500003353FF4FDAE1046194622E750EA410641
:100A600018BF52EA43067FF4C5AE50EA41047FF452
:100A70000DAF52EA43057FF4EBAE12E74FF0FF3CB7
:100A800006E000BF4FF0010C02E000BF4FF0010C88
:100A90004DF804CD4FEA410C7FEA6C5C4FEA430C01
:100AA00018BF7FEA6C5C1BD001B050EA410C0CBF50
:100AB00052EA430C91EA030F02BF90EA020F0020B2
:100AC000704710F1000F91EA030F58BF994208BF19
:100AD00090422CBFD8176FEAE37040F001007047D6
:100AE0004FEA410C7FEA6C5C02D150EA013C07D12D
:100AF0004FEA430C7FEA6C5CD6D152EA033CD3D078
:100B00005DF8040B704700BF8446104662468C4671
:100B10001946634600E000BF01B5FFF7B7FF0028A4
:100B200048BF10F1000F01BD4DF808EDFFF7F4FFCD
:100B30000CBF012000205DF808FB00BF4DF808ED58
:100B4000FFF7EAFF34BF012000205DF808FB00BF7B
:100B50004DF808EDFFF7E0FF94BF012000205DF89D
:100B600008FB00BF4DF808EDFFF7CEFF94BF012052
:100B700000205DF808FB00BF4DF808EDFFF7C4FF4B
:100B800034BF012000205DF808FB00BF4FEA410C94
:100B90007FEA6C5C02D150EA013C0AD14FEA430C77
:100BA0007FEA6C5C02D152EA033C02D14FF00000B4
:100BB00070474FF0010070474FEA410212F50012F2
:100BC00015D211D56FF47873B3EB625212D94FEA94
:100BD000C12343F0004343EA505311F0004F23FA7E
:100BE00002F018BF404270474FF00000704750EAD3
:100BF000013005D111F0004008BF6FF00040704790
:100C00004FF00000704700BF4A0011D212F50012E9
:100C100011D20DD56FF47873B3EB62520ED44FEA54
:100C2000C12343F0004343EA505323FA02F07047D4
:100C30004FF00000704750EA013002D14FF0FF3012
:100C400070474FF0000070474FEA4102B2F1E043B5
:100C500024BFB3F5001CDCF1FE5C0DD901F0004CA3
:100C60004FEAC0024CEA5070B2F1004F40EB8300F3
:100C700008BF20F00100704711F0804F21D113F11F
:100C80003872BCBF01F00040704741F480114FEA58
:100C90005252C2F11802C2F1200C10FA0CF320FAE1
:100CA00002F018BF40F001004FEAC1234FEAD323FE
:100CB00003FA0CFC40EA0C0023FA02F34FEA430368
:100CC000CCE77FEA625307D150EA01331EBF4FF0F1
:100CD000FE4040F44000704701F0004040F0FE400C
:100CE00040F40000704700BF53B94AB9002908BF5B
:100CF00000281CBF4FF0FF314FF0FF3000F0BEB9AD
:100D0000ADF1080C6DE904CE00F03CF8DDF804E02C
:100D1000DDE9022304B0704738B500220023044601
:100D20000D46FFF70BFF28B920462946BDE838409D
:100D300000F00AB8204605F1004100F005F84042F5
:100D400061EB410138BD00BFD0B50C4B0022064617
:100D50000F46FFF781FCFFF757FF0446FFF702FC41
:100D6000074B0022FFF778FC02460B463046394617
:100D7000FFF7BAFAFFF748FF2146D0BD0000F03D6B
:100D80000000F0412DE9F047089D8E460446884654
:100D9000002B4AD18A42174662D9B2FA82F64EB186
:100DA000C6F1200301FA06F820FA03F3B74043EA3C
:100DB0000808B4404FEA174E1FFA87FCB8FBFEF153
:100DC000230C0EFB118843EA084301FB0CF29A4204
:100DD00009D9FB1801F1FF3080F0EA809A4240F215
:100DE000E78002393B449A1AA3B2B2FBFEF00EFB35
:100DF000102243EA024300FB0CFC9C4509D9FB1876
:100E000000F1FF3280F0D6809C4540F2D3803B4415
:100E1000023840EA0140A3EB0C0300211DB1F3406E
:100E20000022C5E90032BDE8F0878B4205D90DB13B
:100E3000C5E9000100210846F5E7B3FA83F100296E
:100E400046D1734502D3824200F20581841A6EEBCB
:100E5000030201209046002DE5D0C5E90048E2E7F5
:100E6000002A00F09080B2FA82F6002E40F0A480B2
:100E70008A1A030C4FEA174E80B2BCB20121B2FBB2
:100E8000FEFC0EFB1C2243EA024304FB0CF29A42D6
:100E900007D9FB180CF1FF3802D29A4200F2E08029
:100EA000C4469B1AB3FBFEF20EFB123340EA034327
:100EB00002FB04F49C4207D9FB1802F1FF3002D276
:100EC0009C4200F2CA8002461B1B42EA0C40A5E786
:100ED000C1F120068B4022FA06F71F430EFA01F4F7
:100EE00020FA06F32EFA06FE4FEA1749234300FACA
:100EF00001F81FFA87FCBEFBF9F01C0C09FB10EE91
:100F000044EA0E4400FB0CFEA64502FA01F209D9A0
:100F10003C1900F1FF3A80F09C80A64540F2998090
:100F200002383C44A4EB0E041FFA83FEB4FBF9F331
:100F300009FB13444EEA044403FB0CFCA44508D906
:100F40003C1903F1FF3E80F08280A4457FD9023B2B
:100F50003C4443EA0040A4EB0C04A0FB02EC6445D3
:100F60007346E14662D35FD05DB1B8EB030264EB38
:100F7000090404FA06F622FA01F31E43CC40C5E93F
:100F8000006400214FE7B1FBF2FC010C41EA0E4185
:100F900080B240EA01423B4638463C46B846BE462F
:100FA0002026B1FBF7F1A2EB080241EA0C4166E70B
:100FB000014618E710462CE7C6F120022EFA02F38C
:100FC000B740B14020FA02F24FEA174E0A43B3FB92
:100FD000FEF8BCB20EFB1833110C41EA034108FBCA
:100FE00004F9B04089454FEA104380B23ED97918E0
:100FF00008F1FF3C01D289451FD8A1EB0901B1FBE3
:10100000FEF909FB04F80EFB191192B242EA014203
:10101000424529D2BA1809F1FF31C4D24245C2D2A1
:10102000A9F102013A44BEE7F0459DD2BEEB0203AE
:101030006CEB070C0138E14696E7A7EB0909494438
:10104000A8F1020CB1FBFEF909FB04F8DBE77346DB
:101050007FE7504666E70846FDE63B44023A33E741
:10106000ACF1020C3B441CE749469CE7A1EB0901AB
:10107000C446B1FBFEF909FB04F8C4E7704700BFA2
:1010800080B584B000AF3B4600221A605A609A6077
:10109000DA60214B214A1A601F4B00225A601E4B16
:1010A00000229A601C4B00221A611B4B00221A7608
:1010B000194B002283F82020174B0022DA62164BCE
:1010C000174A9A62144B0022DA60134B0122DA614C
:1010D000114B002283F830200F4B01225A610E4839
:1010E00002F0D0F90346002B01D001F047FA0023AB
:1010F0003B6001237B600023BB603B4619460648EA
:1011000002F0A2FB0346002B01D001F037FA00BF2A
:101110001037BD4680BD00BF3C02002000200140CA
:101120000100000F80B58AB000AF786007F11403AA
:1011300000221A605A609A60DA601A617B681B6844
:10114000174A934227D100233B61164B5B6C154A2B
:1011500043F480735364134B5B6C03F480733B6103
:101160003B690023FB600F4B1B6B0E4A43F00103EE
:1011700013630C4B1B6B03F00103FB60FB68132331
:101180007B610323BB610023FB6107F11403194654
:10119000054802F0E5FE00BF2837BD4680BD00BF10
:1011A00000200140003802400000024080B582B0BB
:1011B00000AF3B4600221A605A600F4B0F4A1A607C
:1011C0000D4802F051FE0346002B01D001F0D6F984
:1011D00000233B6000237B603B46102219460648F3
:1011E00002F064FE0346002B01D001F0C7F900BFF6
:1011F0000837BD4680BD00BF840200200074004057
:1012000080B58AB000AF786007F1140300221A603D
:101210005A609A60DA601A617B681B68174A9342C9
:1012200027D100233B61164B1B6C154A43F000533A
:101230001364134B1B6C03F000533B613B690023A9
:10124000FB600F4B1B6B0E4A43F0010313630C4B07
:101250001B6B03F00103FB60FB6820237B6103230E
:10126000BB610023FB6107F114031946054802F036
:1012700077FE00BF2837BD4680BD00BF0074004028
:10128000003802400000024080B58AB000AF07F18C
:10129000140300221A605A609A60DA601A6100230F
:1012A0003B61544B1B6B534A43F004031363514B94
:1012B0001B6B03F004033B613B690023FB604D4B58
:1012C0001B6B4C4A43F0800313634A4B1B6B03F0C8
:1012D0008003FB60FB680023BB60464B1B6B454AE9
:1012E00043F001031363434B1B6B03F00103BB602B
:1012F000BB6800237B603F4B1B6B3E4A43F00203FD
:1013000013633C4B1B6B03F002037B607B68002282
:101310004FF45B71384802F0CFFF00224FF4445184
:10132000364802F0C9FF6C237B610123BB610023B7
:10133000FB6100233B6207F1140319462E4802F0BB
:101340000FFE10237B610023BB610023FB6107F1CB
:1013500014031946284802F003FE4FF480537B61C2
:101360000123BB610023FB6103233B6207F11403EC
:101370001946224802F0F4FD4FF400537B6101232B
:10138000BB610023FB6101233B6207F11403194693
:101390001A4802F0E5FD4FF400437B610023BB6176
:1013A0000023FB6107F114031946144802F0D8FD2D
:1013B0004FF440737B610123BB610023FB61022377
:1013C0003B6207F1140319460B4802F0C9FD4FF4C4
:1013D00080737B610123BB610023FB6100233B62BF
:1013E00007F114031946054802F0BAFD00BF28377B
:1013F000BD4680BD003802400008024000040240A3
:1014000080B582B000AF7860391D4FF6FF730122BE
:10141000044804F041FF00BF7B6818460837BD460A
:1014200080BD00BF1C06002080B483B000AF03461F
:10143000FB80094B1B6800225A6200BF064B1B68E9
:101440005A6AFB889A42F9D300BF00BF0C37BD46E9
:101450005DF8047B704700BF4405002080B588B06C
:1014600000AF78600B467B8007F10C0300221A6006
:101470005A609A60DA601A617B88FB6001233B61E5
:101480000023BB6107F10C031946786802F068FD80
:1014900000BF2037BD4680BD80B588B000AF786002
:1014A0000B467B8007F10C0300221A605A609A6099
:1014B000DA601A617B88FB6000233B6101237B615A
:1014C00007F10C031946786802F04AFD00BF203787
:1014D000BD4680BD80B500AF124B1B6893F900304C
:1014E000012B1CD14FF480510F48FFF7B7FF0022AA
:1014F0004FF480510C4802F0DFFE44F25060FFF7D9
:1015000093FF01224FF48051074802F0D5FE1420CA
:10151000FFF78AFF4FF480510348FFF7BDFF00BF7C
:1015200080BD00BF100000200004024080B582B0E2
:1015300000AF0023FB712820FFF776FF204B1B68CC
:1015400093F90030012B36D14FF480511D4802F041
:101550009BFE0346002B20D15020FFF765FF4FF480
:101560008051184802F090FE0346002B02D0012360
:10157000FB7112E0FF23FB710FE0114B1B68B3F905
:10158000022092B2013292B212B25A800C4B1B6806
:10159000B3F90230B3F5FA7F08DC4FF48051094803
:1015A00002F072FE0346002BE7D100E000BF044BBF
:1015B0001B6800225A80FB7918460837BD4680BD5B
:1015C000100000200004024080B582B000AF3B4B09
:1015D0001B6893F90030012B6BD10023BB7165E0D0
:1015E000364B1B68B3F9022092B2013292B212B2AA
:1015F0005A80324B1B68B3F90230B3F5FA7F08DC2E
:101600004FF480512E4802F03FFE0346002BE7D0F6
:1016100000E000BF294B1B6800225A802820FFF7FA
:1016200003FF4FF48051264802F02EFE0346002BA4
:101630000ED1BB79C3F10703012202FA03F35BB2B7
:10164000DB435AB297F9073013405BB2FB711CE0E1
:10165000BB79C3F10703012202FA03F35AB297F9E7
:10166000073013435BB2FB710FE0144B1B68B3F9F7
:10167000022092B2013292B212B25A800F4B1B6812
:10168000B3F90230B3F5FA7F08DC4FF480510C480F
:1016900002F0FAFD0346002BE7D100E000BF074B44
:1016A0001B6800225A80BB790133BB71BB79072BC1
:1016B000A6D9FB7918460837BD4680BD100000202A
:1016C0000004024080B588B000AF4FF00003FB611A
:1016D0004FF00003BB610023FB75FFF7FBFEFFF734
:1016E00025FF0346FB75FFF76FFF0346BB75FFF74A
:1016F0006BFF03467B75FFF767FF03463B75FFF7FC
:1017000063FF0346FB74FFF75FFF03463B823B7DAD
:10171000FB81BB7DBB81FB8907EE903AF8EE677ACF
:10172000C7ED077ABB8907EE903AF8EE677AC7ED06
:10173000067A2D4B1B6893F90030012B43D1FB89AE
:10174000FE2B09D9284B1B689B8807EE903AF8EED0
:10175000677AC7ED077A09E0234B1B68D7ED077A54
:10176000FCEEE77A17EE902A92B29A80BB89FE2BA4
:1017700009D91D4B1B68DB8807EE903AF8EE677AB3
:10178000C7ED067A09E0184B1B68D7ED067AFCEE28
:10179000E77A17EE902A92B2DA80134B1B68D7EDE6
:1017A000077AFCEEE77AC7ED017A3A79D2B29A72FB
:1017B0000D4B1B68D7ED067AFCEEE77AC7ED017A90
:1017C0003A79D2B2DA724FF4FA7001F037FEFB893F
:1017D000002B02D1BB89002B01D00123FFE7184663
:1017E0002037BD4680BD00BF1000002080B500AF8F
:1017F000FFF768FF0346002B07D0054B1B68DB7A19
:1018000007EE903AF8EE677AFFE7B0EE670A80BD20
:101810001000002080B500AFFFF754FF0346002BF7
:1018200007D0054B1B689B7A07EE903AF8EE677A73
:10183000FFE7B0EE670A80BD1000002080B59CB0C5
:1018400000AF0023FB664FF00003BB664B4B7B668B
:101850004B4B1B6893F90030012B7CD13B1D0022C0
:101860001A605A609A60DA6000237B600123BB60D3
:101870000123FB603B1D1946424801F0E5FF41484A
:1018800001F044FE0A213F4801F045FF0346002BCA
:1018900061D13C4801F0CAFFF866394B1B68FA6E0B
:1018A00092B25A80FB6E40F6FF72934202D0FB6EFA
:1018B000002B04D1324B1B689B88FB6604E0304B45
:1018C0001B68FA6E92B29A80FB6E07EE903AB8EE01
:1018D000677ADFED2D6AC7EE267A9FED2C7A67EEE8
:1018E000877AC7ED187A9FED297AD7ED187A77EEC7
:1018F000677A9FED277A67EE876AD7ED187AF5EE5B
:10190000C07AF1EE10FA02DDD7ED187A01E0F7EEB9
:10191000007A86EEA77A87ED177A97ED177ADFEDD2
:101920001D6AC7EE267AC7ED167ADFED1B0A97ED22
:10193000160A05F003F9F0EE407A9FED187A67EE8B
:10194000877A9FED177A77EE877AC7ED157A0C4B79
:101950001B687A6D9A600B4801F0AAFEFB6E40F698
:10196000FF72934202D1FB6E002B01D0012300E0F5
:10197000002318467037BD4680BD00BF00401C469E
:10198000240000203C02002000F07F453333534008
:1019900000401C4600007A44333333BF00007C42D1
:1019A0000000484280B500AFFFF748FF0346002B18
:1019B00007D0054B1B685B8807EE903AF8EE677A14
:1019C000FFE7B0EE670A80BD2400002080B500AFBD
:1019D000FFF734FF0346002B05D0044B1B689B68C0
:1019E00007EE903AFFE7B0EE670A80BD24000020C2
:1019F000B0B588B002AF7860394B7B617868FEF78C
:101A0000B1FD2FA3D3E90023FEF750FF02460B469A
:101A100014461D467869FEF7C7FD02460B46204670
:101A20002946FEF719FE02460B4610461946FFF7F7
:101A30000BF903463B613869FEF7B6FD22A3D3E9F3
:101A40000023FEF751FC02460B461046194620A320
:101A5000D3E90023FEF72AFF02460B46104619463B
:101A60001DA3D3E90023FEF7F7FD02460B461046FF
:101A700019464FF000021B4BFEF738FC02460B469E
:101A800010461946FFF7E0F80346FB603869FEF799
:101A90008BFD04460D46F868FEF786FD02460B46B0
:101AA000CDE9002322462B460F4806F0BFFBFB681A
:101AB00007EE903AB0EE670A1837BD46B0BD00BFDA
:101AC0000000000000FEAF409A9999999999D93F7A
:101AD0009A9999999999F93F0000000000F8B1404E
:101AE0003333534000007940B8BA000890B587B04E
:101AF00000AF00237B613B1D00221A605A609A6090
:101B0000DA6001237B600123BB600123FB603B1D86
:101B10001946214801F098FE1F4801F0F7FC0A2100
:101B20001D4801F0F8FD0346002B1ED11A4801F0B4
:101B30007DFE78617B6940F6FF72934202D07B693B
:101B4000002B04D1154B1B685B887B6104E0134BB1
:101B50001B687A6992B25A80104B1C687869FFF74B
:101B600047FFF0EE407AC4ED027A0B4801F0A0FD89
:101B700079690B4806F05AFB7B6940F6FF72934285
:101B800002D17B69002B01D0012300E0002318461D
:101B90001C37BD4690BD00BF3C020020380000202D
:101BA000D8BA000880B500AFFFF7A0FF0346002BAE
:101BB00005D0044B1B689B6807EE903AFFE7B0EE38
:101BC000670A80BD3800002098B500AF0B4B1C6839
:101BD0004FF400410A4802F057FB03462370074BBD
:101BE0001B681B78012B02D14FF07E5301E04FF0B0
:101BF000000307EE903AB0EE670A98BD3C00002063
:101C00000004024090B589B000AF786007F1080386
:101C100000221A605A601A810023FB610023BB6115
:101C200000237B6143E07B697A6813441B782C2B8B
:101C30000BD07B697A6813441B780A2B05D07B692B
:101C40007A6813441B780D2B20D1FB69002B2BDD08
:101C5000BC69631CBB6107F10803184605F035FB3E
:101C60000346224A42F82430BB69013B1F4A52F81E
:101C70002330184606F0DAFA0023FB6107F1080367
:101C80000A220021184606F03BFC0DE0FB69082BF8
:101C90000AD87B697A681A44FB69591CF961127881
:101CA00020333B4403F8182C7B6901337B617B694B
:101CB0007A6813441B78002B02D0BB69032BB2DD7A
:101CC000FB69002B0EDDBB69042B0BDCBC69631CBC
:101CD000BB6107F10803184605F0F7FA0346034A0B
:101CE00042F8243000BF2437BD4690BD9C0200203E
:101CF00080B500AF00224021034802F0DDFA03481E
:101D000006F0FCFA00BF80BD00080240E8BA0008F7
:101D100080B500AF01224021034802F0CDFA03480C
:101D200006F0ECFA00BF80BD00080240F0BA0008DF
:101D300080B500AF00224FF40071024802F0BCFAF7
:101D400000BF80BD0008024080B500AF00224FF404
:101D50008071024802F0B0FA00BF80BD0008024066
:101D600080B500AF01224FF40071024802F0A4FADE
:101D700000BF80BD0008024080B500AF01224FF4D3
:101D80008071024802F098FA00BF80BD000802404E
:101D900080B586B002AF0346FB80F888002300932D
:101DA00040F6FF7340F6FF72002100F013F803467F
:101DB000FB8101224FF40051044802F07DFA044AED
:101DC000FB88536300BF1037BD4680BD000402404E
:101DD0000048014090B482B000AF04460846114666
:101DE0001A462346FB800346BB800B467B80134686
:101DF0003B80FA88BB88D31A398A3A888A1A03FB4F
:101E000002F27988BB88CB1A92FBF3F39AB23B8833
:101E100013449BB218460837BD4690BC704700007B
:101E200080B584B000AF78600023FB60454806F0C1
:101E300065FA0023BB6079E0BB68032B73D801A26D
:101E400052F823F0551E0008911E0008CD1E000810
:101E5000E11E0008BB689B007A6813441B68002BD6
:101E600002D100F071F859E0BB689B007A68134416
:101E70001B68012B02D100F085F84FE0BB689B0086
:101E80007A6813441B68022B48D100F099F845E0AA
:101E9000BB689B007A6813441B68002B02D10123A6
:101EA000FB603DE0BB689B007A6813441B68012B14
:101EB00002D1FFF72DFF33E0BB689B007A68134423
:101EC0001B68022B2CD1FFF723FF29E0BB689B0086
:101ED0007A6813441B689BB21846FFF759FF22E04B
:101EE000BB689B007A6813441B68002B02D1012356
:101EF000FB6017E0BB689B007A6813441B68012BEA
:101F000002D1FFF705FF0DE0BB689B007A68134420
:101F10001B68022B06D1FFF7FBFE03E000BF02E0C7
:101F200000BF00E000BFBB680133BB60BB68032B90
:101F300082DDFB68012B01D1FFF7DAFE00BF10370D
:101F4000BD4680BD0CBB000880B500AF0A4806F056
:101F5000D5F901220421094802F0AEF90022082136
:101F6000064802F0A9F901224FF48071044802F0FA
:101F7000A3F900BF80BD00BF14BB000800080240E9
:101F80000004024080B500AF0A4806F0B7F900220D
:101F90000421094802F090F901220821064802F0C4
:101FA0008BF901224FF48071044802F085F900BFDB
:101FB00080BD00BF24BB00080008024000040240AE
:101FC00080B500AF0A4806F099F9002204210948BB
:101FD00002F072F900220421064802F06DF9002295
:101FE0004FF48071044802F067F900BF80BD00BF64
:101FF00034BB000800080240000402402DE9B04F45
:1020000094B008AF01F0D8F900F0AAF9FFF73CF955
:1020100000F018FF01F0D6F801F0FEF8FFF730F8F5
:1020200000F004FD00F0AEFD00F0FAFD00F046FE09
:1020300000F0BAFEFFF7BAF800F03AFF00F0A4FA99
:1020400000F0FCF9A74803F043F8A74803F040F874
:10205000A64801F05BFA4FF0FF31A44801F05BFBAA
:10206000A34803F09DF8A34803F09AF8A24803F0B0
:1020700097F80021A14803F05DF90021A04803F082
:1020800059F9FFF745FEFFF76BFEFFF775FE9D4B15
:102090001B78002B63D19C4806F030F94FF47A731B
:1020A00010229A499A4804F082F90346002B40F026
:1020B0001381984806F022F9944B0022DA73934971
:1020C000954806F0B3F8FFF7A5FB87ED050AFFF783
:1020D0008DFB87ED040AFFF765FC87ED030A78693D
:1020E000FEF762FA804689463869FEF75DFA0446D3
:1020F0000D46F868FEF758FA02460B46CDE9022372
:10210000CDE9004542464B46844806F08FF88449A5
:102110007E48FEF77DF80346002B40F0DD808148C5
:1021200006F0ECF8FFF7CEFA0346002B00F0D4805F
:10213000FFF784FB0346002B00F0CE80714B012299
:102140001A70794806F0DAF87848FEF7C1F80346C5
:102150009AB20A2375496E4804F09EF8BCE0FFF776
:1021600059FB87ED0A0AFFF741FB87ED090AFFF7E4
:102170002DFC87ED080AFFF715FD87ED070AFFF72D
:1021800023FD87ED060A6A4B00221A70B86AFEF733
:102190000BFAC7E90001786AFEF706FA04460D4615
:1021A000F869FEF701FA80468946386AFEF7FCF9BD
:1021B00082468B46B869FEF7F7F902460B46CDE931
:1021C0000623CDE904ABCDE90289CDE90045D7E985
:1021D0000023584806F02AF8574B1B8801339AB25F
:1021E000554B1A80D7ED0A7AF5EE407AF1EE10FAE7
:1021F0003ED0514B1B88032B3AD14F4B00221A8003
:10220000B86AFEF7D1F9C7E90001786AFEF7CCF9A0
:1022100004460D46F869FEF7C7F980468946386AD4
:10222000FEF7C2F982468B46B869FEF7BDF9024651
:102230000B46CDE90623CDE904ABCDE90289CDE912
:102240000045D7E900233D493D4806F05FF83C4989
:102250003C4805F0EBFF3A48FEF73AF803469AB2DD
:10226000642337492A4804F017F80A2001F0E6F8F9
:102270004FF47A7308223449254804F098F803464D
:10228000002B22D1314806F039F82F4B00221A7268
:102290002D492F4805F0CAFF2B48FFF7B3FC002358
:1022A000FB620BE02B4AFB6A52F823301A46F96AAC
:1022B000294805F0BBFFFB6A0133FB62FB6A032B75
:1022C000F0DD2448FFF7ACFD02E0244806F016F8E4
:1022D0004FF47A7001F0B2F841F2883001F0AEF8B4
:1022E000D5E600BF44050020DC0300203C020020AE
:1022F000240400206C040020FC040020B40400200E
:102300008C0500202C0300209CBB0008AC020020A0
:10231000D4050020B8BB0008C0BB0008D8BB00082B
:10232000FCBB00080CBC000814BC000840000020E6
:102330002D0300202CBC00083403002068BC0008DA
:10234000BC02002084BC0008DC02002088BC00081D
:1023500098BC00089C020020A8BC0008C0BC000873
:1023600080B594B000AF07F11C0334220021184659
:1023700006F0C6F807F1080300221A605A609A6056
:10238000DA601A6100237B602A4B1B6C294A43F0F8
:1023900080531364274B1B6C03F080537B607B6876
:1023A00000233B60244B1B6823F44043224A43F440
:1023B00080431360204B1B6803F440433B603B6841
:1023C0000123FB614FF480333B6202237B634FF4B4
:1023D0008003BB630823FB634FF4B4733B640223A5
:1023E0007B640223BB640223FB6407F11C031846D1
:1023F00002F0F8FA0346002B01D000F0BFF80F23DB
:10240000BB600223FB6080233B614FF480537B6100
:102410004FF48053BB6107F108030221184601F015
:1024200065FF0346002B01D000F0A8F800BF50372D
:10243000BD4680BD003802400070004080B500AF4E
:10244000002200211C2001F0E5FC1C2001F0FEFC14
:1024500000BF80BD80B584B000AF78607B681B682A
:10246000B3F1804F21D13D4B1B78012B1DD1FFF7DC
:1024700099FA87ED030AD7ED037AFCEEE77A17EEB7
:10248000903A9BB21846FFF783FCFFF79DFB87ED60
:10249000020AD7ED027AF5EE407AF1EE10FA02D197
:1024A000FFF746FC01E0FFF75BFC7B681B682C4AEA
:1024B000934234D1294B1B78012B30D1294B1B6817
:1024C0005A78284B1B680132D2B25A70254B1B68D0
:1024D0005B781846FEF756F84FF000024FF0804345
:1024E000FEF7E4F902460B461F4805F09FFE1D4B20
:1024F0001B685B78052B0BD11A4B1B6800225A70A6
:10250000184B1B6801221A70184805F0F7FE06E008
:10251000144B1B6800221A70154805F0EFFE7B680B
:102520001B68144A93420DD10C4B1B78012B09D127
:102530000C4B1B681B78012B02D1FFF705FC01E057
:10254000FFF71AFC7B681B680B4A934201D100F02D
:1025500055FF00BF1037BD4680BD00BF2C030020D3
:102560000004004048000020D4BC0008E4BC00087F
:10257000F4BC0008000C00400020004080B400AF14
:1025800072B600BF00BFFDE780B500AF174B184A19
:102590001A60164B4FF482725A60144B00229A60F4
:1025A000124B0022DA60114B00221A610F4B0022FD
:1025B0005A610E4B4FF400729A610C4B1822DA618B
:1025C0000A4B00221A62094B00225A62074B002272
:1025D0009A62064B0A22DA62044802F0A1FC034622
:1025E000002B01D0FFF7CAFF00BF80BD38030020D9
:1025F0000030014080B58AB000AF786007F1140365
:1026000000221A605A609A60DA601A617B681B685F
:10261000194A93422BD100233B61184B5B6C174A3C
:1026200043F480535364154B5B6C03F480533B615C
:102630003B690023FB60114B1B6B104A43F0020304
:1026400013630E4B1B6B03F00203FB60FB68382324
:102650007B610223BB610023FB6103233B620523F3
:102660007B6207F114031946054801F079FC00BFAD
:102670002837BD4680BD00BF003001400038024011
:102680000004024080B483B000AF00237B60104B95
:102690005B6C0F4A43F4804353640D4B5B6C03F453
:1026A00080437B607B6800233B60094B1B6C084ABE
:1026B00043F080531364064B1B6C03F080533B6064
:1026C0003B6800BF0C37BD465DF8047B704700BF18
:1026D0000038024080B58EB000AF78600023FB6206
:1026E0000023BB620023FB60334B1B6C324A43F474
:1026F00080731364304B1B6C03F48073FB60FB68C6
:1027000007F1100207F114031146184601F008FF03
:102710003B6AFB62FB6A002B03D101F0D9FE7863B0
:1027200004E001F0D5FE03465B007B637B6B234A2C
:10273000A2FB03239B0C013BBB62214B214A1A6085
:102740001F4B40F2E732DA601D4ABB6A53601C4BF4
:1027500000221A611A4B00229A60194B00229A61DA
:10276000174802F066FC034687F8333097F8333099
:10277000002B1BD1124802F013FD034687F83330BB
:1027800097F83330002B11D12D2001F05FFB7B68CF
:102790000F2B08D8002279682D2001F03BFB0A4A54
:1027A0007B68136002E0012387F8333097F83330F9
:1027B00018463837BD4680BD0038024083DE1B43D3
:1027C00090030020002000405000002080B400AFA3
:1027D00000BFFDE780B400AF00BFFDE780B400AFED
:1027E00000BFFDE780B400AF00BFFDE780B400AFDD
:1027F00000BFFDE780B400AF00BFBD465DF8047BBD
:10280000704780B400AF00BFBD465DF8047B7047E1
:1028100080B400AF00BFBD465DF8047B704780B454
:1028200000AF00BFBD465DF8047B704780B500AFC8
:10283000024802F047FE00BF80BD00BF2404002014
:1028400080B500AF024802F03DFE00BF80BD00BF72
:102850006C04002080B500AF024802F033FE00BFD8
:1028600080BD00BF9003002080B500AF024802F099
:1028700029FE00BF80BD00BFFC04002080B400AF73
:1028800001231846BD465DF8047B704780B582B0D1
:1028900000AF7860396005F085FE034616221A60A5
:1028A0004FF0FF3318460837BD4680BD80B582B073
:1028B00000AF78604FF0FF317868FFF7E7FF00BFA7
:1028C000FDE780B586B000AFF860B9607A6000239C
:1028D0007B610AE0AFF300800146BB685A1CBA6016
:1028E000CAB21A707B6901337B617A697B689A424C
:1028F000F0DB7B6818461837BD4680BD80B586B0D2
:1029000000AFF860B9607A6000237B6109E0BB68C2
:102910005A1CBA601B781846FEF772FD7B690133BA
:102920007B617A697B689A42F1DB7B6818461837CD
:10293000BD4680BD80B483B000AF78604FF0FF33F8
:1029400018460C37BD465DF8047B704780B483B0F1
:1029500000AF786039603B684FF400525A60002342
:1029600018460C37BD465DF8047B704780B483B0D1
:1029700000AF7860012318460C37BD465DF8047B34
:10298000704780B485B000AFF860B9607A6000230A
:1029900018461437BD465DF8047B704780B586B095
:1029A00000AF7860144A154BD31A7B617B693B6199
:1029B000134B1B68002B02D1114B124A1A60104BAB
:1029C0001A687B6813443A699A4207D205F0EAFD17
:1029D00003460C221A604FF0FF3309E0084B1B68D6
:1029E000FB60074B1A687B681344054A1360FB6859
:1029F00018461837BD4680BD0000022000040000C4
:102A0000D8030020B807002080B400AF064BD3F8ED
:102A10008830054A43F47003C2F8883000BFBD46D1
:102A20005DF8047B704700BF00ED00E080B596B014
:102A300000AF07F1480300221A605A609A60DA601A
:102A400007F1400300221A605A6007F124030022B4
:102A50001A605A609A60DA601A615A619A613B1D85
:102A600020220021184605F04BFD444B444A1A60D1
:102A7000424B59225A60414B00229A603F4B4EF61E
:102A80005F22DA603D4B00221A613C4B00225A6102
:102A90003A4B00229A61394802F0CBFA0346002BE8
:102AA00001D0FFF76BFD4FF48053BB6407F148037F
:102AB0001946324802F0B8FE0346002B01D0FFF75A
:102AC0005DFD2E4802F0DCFB0346002B01D0FFF732
:102AD00055FD00233B6400237B6407F14003194646
:102AE000264803F0A7FA0346002B01D0FFF746FD66
:102AF00060237B620023BB620023FB6200233B63F5
:102B000000237B630023BB630023FB6307F12403E3
:102B100000221946194802F0C5FD0346002B01D0DA
:102B2000FFF72CFD07F124030C221946134802F08D
:102B3000B9FD0346002B01D0FFF720FD00237B6089
:102B40000023BB600023FB6000233B6100237B610B
:102B50004FF40053BB6100233B623B1D19460748FD
:102B600003F0E4FA0346002B01D0FFF707FD03480A
:102B700000F09EFA00BF5837BD4680BDDC03002040
:102B80000000014080B586B000AF07F108030022C5
:102B90001A605A609A60DA603B4600221A605A60F6
:102BA0001E4B4FF080421A601C4B42F227325A6093
:102BB0001A4B00229A60194B40F2E732DA60174B49
:102BC00000221A61154B80229A61144802F031FAF2
:102BD0000346002B01D0FFF7D1FC4FF48053BB60BC
:102BE00007F1080319460D4802F01EFE0346002BAC
:102BF00001D0FFF7C3FC00233B6000237B603B4612
:102C00001946064803F016FA0346002B01D0FFF7D9
:102C1000B5FC00BF1837BD4680BD00BF24040020AE
:102C200080B586B000AF07F1080300221A605A6031
:102C30009A60DA603B4600221A605A601D4B1E4AB9
:102C40001A601C4B4AF6C7725A601A4B00229A60EF
:102C5000184B4EF65F22DA60164B00221A61154BB4
:102C600000229A61134802F0E4F90346002B01D0D8
:102C7000FFF784FC4FF48053BB6007F1080319464B
:102C80000C4802F0D1FD0346002B01D0FFF776FC83
:102C900000233B6000237B603B461946054803F058
:102CA000C9F90346002B01D0FFF768FC00BF1837B5
:102CB000BD4680BD6C0400200004004080B58EB08D
:102CC00000AF07F1280300221A605A609A60DA60A8
:102CD00007F1200300221A605A603B1D00221A608F
:102CE0005A609A60DA601A615A619A612C4B2D4AD7
:102CF0001A602B4B59225A60294B00229A60284BAC
:102D000040F69F72DA60264B00221A61244B0022A3
:102D10009A61234802F08DF90346002B01D0FFF79A
:102D20002DFC4FF48053BB6207F1280319461C4861
:102D300002F07AFD0346002B01D0FFF71FFC184874
:102D400002F09EFA0346002B01D0FFF717FC002388
:102D50003B6200237B6207F120031946104803F011
:102D600069F90346002B01D0FFF708FC60237B6064
:102D70000023BB600023FB6000237B613B1D00221E
:102D80001946074802F08EFC0346002B01D0FFF7DE
:102D9000F5FB034800F08CF900BF3837BD4680BD15
:102DA000B40400200008004080B586B000AF07F1F1
:102DB000080300221A605A609A60DA603B460022DB
:102DC0001A605A601D4B1E4A1A601C4B42F2273291
:102DD0005A601A4B00229A60184B40F2E732DA60D0
:102DE000164B00221A61154B00229A61134802F01B
:102DF00020F90346002B01D0FFF7C0FB4FF48053AE
:102E0000BB6007F1080319460C4802F00DFD0346AC
:102E1000002B01D0FFF7B2FB00233B6000237B6057
:102E20003B461946054803F005F90346002B01D03F
:102E3000FFF7A4FB00BF1837BD4680BDFC0400208F
:102E4000000C004080B582B000AF3B4600221A6003
:102E50005A60154B154A1A60134B59225A60124B8F
:102E600000229A60104B4FF6FE72DA600E4B002281
:102E70009A610D4802F0DDF80346002B01D0FFF700
:102E80007DFB00233B6000237B603B4619460648E0
:102E900003F0D0F80346002B01D0FFF76FFB00BF13
:102EA0000837BD4680BD00BF44050020001000402B
:102EB00080B588B000AF3B1D00221A605A609A604E
:102EC000DA601A615A619A611E4B1F4A1A601D4BE3
:102ED00008225A601B4B00229A601A4B40F6FF7280
:102EE000DA60184B00221A61164B00229A611548CD
:102EF00002F09FF80346002B01D0FFF73FFB11487B
:102F000002F0BEF90346002B01D0FFF737FB602328
:102F10007B600023BB600023FB6000237B613B1DC3
:102F200000221946074802F0BDFB0346002B01D0E2
:102F3000FFF724FB034800F0BBF800BF2037BD4675
:102F400080BD00BF8C0500200048014080B58AB0DC
:102F500000AF78607B681B684E4A93420ED1002315
:102F60007B624D4B5B6C4C4A43F0010353644A4B0C
:102F70005B6C03F001037B627B6A86E07B681B6805
:102F8000B3F1804F0ED100233B62434B1B6C424A8E
:102F900043F001031364404B1B6C03F001033B62DD
:102FA0003B6A72E07B681B683C4A934216D100235F
:102FB000FB61394B1B6C384A43F002031364364BF8
:102FC0001B6C03F00203FB61FB69002200211D2042
:102FD00000F020FF1D2000F039FF56E07B681B68E1
:102FE0002F4A93420ED10023BB612B4B1B6C2A4A04
:102FF00043F004031364284B1B6C03F00403BB6110
:10300000BB6942E07B681B68264A934216D10023C5
:103010007B61214B1B6C204A43F0080313641E4B59
:103020001B6C03F008037B617B69002200213220C6
:1030300000F0F0FE322000F009FF26E07B681B68FC
:10304000194A93420ED100233B61134B1B6C124A69
:1030500043F010031364104B1B6C03F010033B612F
:103060003B6912E07B681B68104A93420DD1002334
:10307000FB60094B5B6C084A43F480235364064BA6
:103080005B6C03F48023FB60FB6800BF2837BD4600
:1030900080BD00BF00000140003802400004004035
:1030A00000080040000C00400010004000480140B3
:1030B00080B58AB000AF786007F1140300221A606F
:1030C0005A609A60DA601A617B681B68374A9342DB
:1030D0001FD100233B61364B1B6B354A43F0010384
:1030E0001363334B1B6B03F001033B613B694FF4EC
:1030F00010637B610223BB610023FB6102233B62FF
:1031000001237B6207F1140319462A4800F028FFC7
:1031100047E07B681B68284A93421ED10023FB606E
:10312000234B1B6B224A43F002031363204B1B6BA0
:1031300003F00203FB60FB6840237B610223BB6159
:103140000023FB6100233B6202237B6207F114032F
:1031500019461A4800F004FF23E07B681B68184AF0
:1031600093421ED10023BB60114B1B6B104A43F0EE
:10317000020313630E4B1B6B03F00203BB60BB68BF
:103180004FF400737B610223BB610023FB610023CA
:103190003B6203237B6207F114031946074800F0E2
:1031A000DFFE00BF2837BD4680BD00BF00000140E4
:1031B00000380240000002400008004000040240C5
:1031C0000048014080B500AF114B124A1A60104B05
:1031D0004FF4E1325A600E4B00229A600C4B0022F1
:1031E000DA600B4B00221A61094B0C225A61084B22
:1031F00000229A61064B0022DA61054802F0FCFFCA
:103200000346002B01D0FFF7B9F900BF80BD00BF16
:10321000D40500200010014080B500AF114B124AC8
:103220001A60104B4FF4E1325A600E4B00229A6044
:103230000C4B0022DA600B4B00221A61094B0C2266
:103240005A61084B00229A61064B0022DA61054858
:1032500002F0D2FF0346002B01D0FFF78FF900BF29
:1032600080BD00BF1C0600200044004080B58CB02B
:1032700000AF786007F11C0300221A605A609A6060
:10328000DA601A617B681B68324A93422DD10023B1
:10329000BB61314B5B6C304A43F0100353642E4BDF
:1032A0005B6C03F01003BB61BB6900237B612A4B9D
:1032B0001B6B294A43F001031363274B1B6B03F07D
:1032C00001037B617B694FF4C063FB6102233B62B6
:1032D00000237B620323BB620723FB6207F11C030D
:1032E00019461E4800F03CFE30E07B681B681C4A13
:1032F00093422BD100233B61174B1B6C164A43F4BE
:1033000000331364144B1B6C03F400333B613B69C3
:103310000023FB60104B1B6B0F4A43F00103136348
:103320000D4B1B6B03F00103FB60FB680C23FB617F
:1033300002233B6200237B620323BB620723FB6201
:1033400007F11C031946054800F00AFE00BF30379C
:10335000BD4680BD00100140003802400000024020
:1033600000440040DFF834D0FFF74EFB0C480D4915
:103370000D4A002302E0D458C4500433C4188C42D0
:10338000F9D30A4A0A4C002301E013600432A24236
:10339000FBD305F00DF9FEF731FE70470000022067
:1033A000000000202002002070C100082002002040
:1033B000B4070020FEE7000080B500AF0E4B1B688D
:1033C0000D4A43F4007313600B4B1B680A4A43F425
:1033D00080631360084B1B68074A43F480731360D3
:1033E000032000F00CFD0F20FFF774F9FFF74AF9F6
:1033F0000023184680BD00BF003C024080B400AFEF
:10340000064B1B781A46064B1B681344044A13608C
:1034100000BFBD465DF8047B704700BF540000202C
:103420006406002080B400AF034B1B681846BD46FD
:103430005DF8047B704700BF6406002080B584B04F
:1034400000AF7860FFF7EEFFB8607B68FB60FB6859
:10345000B3F1FF3F05D00A4B1B781A46FB681344B3
:10346000FB6000BFFFF7DEFF0246BB68D31AFA68B5
:103470009A42F7D800BF00BF1037BD4680BD00BFDD
:103480005400002080B584B000AF78600023FB7347
:103490007B68002B01D1012333E07B681B6C002B80
:1034A00009D17868FDF73EFE7B6800225A647B688C
:1034B000002283F83C207B681B6C03F01003002B78
:1034C00018D17B681B6C23F4885323F0020343F06C
:1034D00002027B681A64786800F0E8FA7B680022D0
:1034E0005A647B681B6C23F0030343F001027B6882
:1034F0001A6401E00123FB737B68002283F83C20FF
:10350000FB7B18461037BD4680BD000080B485B0F7
:1035100000AF78600023BB607B6893F83C30012BE0
:1035200001D10223B2E07B68012283F83C207B6852
:103530001B689B6803F00103012B18D07B681B6894
:103540009A687B681B6842F001029A60524B1B68C4
:10355000524AA2FB03239A0C13465B001344BB6040
:1035600002E0BB68013BBB60BB68002BF9D17B6804
:103570001B689B6803F00103012B7AD17B681B6CED
:1035800023F4E06323F0010343F480727B681A6440
:103590007B681B685B6803F48063002B07D07B6843
:1035A0001B6C23F4405343F480527B681A647B689D
:1035B0001B6C03F48053B3F5805F06D17B685B6CB2
:1035C00023F006027B685A6402E07B6800225A649A
:1035D0007B68002283F83C20314BFB607B681B68D2
:1035E0006FF022021A60FB685B6803F01F03002B78
:1035F0002AD17B681B682B4A934215D07B681B68D5
:10360000294A934205D1264B5B6803F01F03002B28
:103610000AD07B681B68254A934236D1204B5B68F1
:1036200003F01003002B30D17B681B689B6803F00C
:103630004053002B29D17B681B689A687B681B6804
:1036400042F080429A6020E07B681B68154A9342F2
:103650001BD17B681B689B6803F04053002B14D17F
:103660007B681B689A687B681B6842F080429A609E
:103670000BE07B681B6C43F010027B681A647B686C
:103680005B6C43F001027B685A64002318461437D0
:10369000BD465DF8047B70474C00002083DE1B4371
:1036A0000023014000200140002101400022014090
:1036B00080B483B000AF78607B6893F83C30012B16
:1036C00001D1022321E07B68012283F83C207B6842
:1036D0001B689A687B681B6822F001029A607B680D
:1036E0001B689B6803F00103002B09D17B681B6CEE
:1036F00023F4885323F0010343F001027B681A642A
:103700007B68002283F83C20002318460C37BD4616
:103710005DF8047B704780B584B000AF7860396095
:103720000023FB607B681B689B6803F48063B3F530
:10373000806F13D17B681B689B6803F48073B3F5BB
:10374000807F0BD17B681B6C43F020027B681A647E
:103750007B68002283F83C20012363E0FFF762FED0
:10376000F86021E03B68B3F1FF3F1DD03B68002BC0
:1037700007D0FFF757FE0246FB68D31A3A689A4211
:1037800012D27B681B681B6803F00203022B0BD06C
:103790007B681B6C43F004027B681A647B68002220
:1037A00083F83C2003233DE07B681B681B6803F023
:1037B0000203022BD6D17B681B686FF012021A60DD
:1037C0007B681B6C43F400727B681A647B681B681F
:1037D0009B6803F04053002B23D17B681B7E002B9A
:1037E0001FD17B681B68DB6A03F47003002B06D0D3
:1037F0007B681B689B6803F48063002B11D17B6896
:103800001B6C23F480727B681A647B681B6C03F466
:103810008053002B05D17B681B6C43F001027B6851
:103820001A64002318461037BD4680BD80B483B0AB
:1038300000AF78607B681B68DB6C18460C37BD46B0
:103840005DF8047B7047000080B485B000AF7860FD
:1038500039600023BB607B6893F83C30012B01D1B9
:10386000022313E17B68012283F83C203B681B683C
:10387000092B25D97B681B68D9683B681B689BB2FC
:103880001A4613465B0013441E3B072202FA03F359
:10389000DA437B681B680A40DA607B681B68D9687A
:1038A0003B689A683B681B689BB2184603465B00FE
:1038B00003441E3B9A407B681B680A43DA6022E09F
:1038C0007B681B6819693B681B689BB21A461346E4
:1038D0005B001344072202FA03F3DA437B681B6898
:1038E0000A401A617B681B6819693B689A683B68E3
:1038F0001B689BB2184603465B0003449A407B68F2
:103900001B680A431A613B685B68062B24D87B68F6
:103910001B68596B3B685A6813469B001344053B70
:103920001F2202FA03F3DA437B681B680A405A63DA
:103930007B681B68596B3B681B689BB218463B68E9
:103940005A6813469B001344053B00FA03F27B6858
:103950001B680A435A634CE03B685B680C2B24D815
:103960007B681B68196B3B685A6813469B001344BD
:10397000233B1F2202FA03F3DA437B681B680A40E9
:103980001A637B681B68196B3B681B689BB21846FF
:103990003B685A6813469B001344233B00FA03F22A
:1039A0007B681B680A431A6323E07B681B68D96A3B
:1039B0003B685A6813469B001344413B1F2202FA9E
:1039C00003F3DA437B681B680A40DA627B681B6892
:1039D000D96A3B681B689BB218463B685A68134615
:1039E0009B001344413B00FA03F27B681B680A43C7
:1039F000DA62294BFB607B681B68284A93420FD12F
:103A00003B681B68122B0BD1FB685B6823F4000238
:103A1000FB685A60FB685B6843F48002FB685A608D
:103A20007B681B681D4A93422BD13B681B681C4A6C
:103A3000934203D03B681B68112B22D1FB685B6863
:103A400023F48002FB685A60FB685B6843F4000261
:103A5000FB685A603B681B68114A934211D1114BB5
:103A60001B68114AA2FB03239A0C13469B001344C4
:103A70005B00BB6002E0BB68013BBB60BB68002B26
:103A8000F9D17B68002283F83C20002318461437C4
:103A9000BD465DF8047B70470023014000200140D3
:103AA000120000104C00002083DE1B4380B485B060
:103AB00000AF7860794BFB60FB685B6823F44032B1
:103AC000FB685A60FB685A687B685B681A43FB684E
:103AD0005A607B681B685A687B681B6822F4807296
:103AE0005A607B681B6859687B681B691A027B688F
:103AF0001B680A435A607B681B685A687B681B68AE
:103B000022F040725A607B681B6859687B689A682B
:103B10007B681B680A435A607B681B689A687B68ED
:103B20001B6822F400629A607B681B6899687B6856
:103B3000DA687B681B680A439A607B689B6A584A0C
:103B4000934222D07B681B689A687B681B6822F0CE
:103B500070629A607B681B6899687B689A6A7B6868
:103B60001B680A439A607B681B689A687B681B68BD
:103B700022F040529A607B681B6899687B68DA6A19
:103B80007B681B680A439A600FE07B681B689A6831
:103B90007B681B6822F070629A607B681B689A6879
:103BA0007B681B6822F040529A607B681B689A68A9
:103BB0007B681B6822F002029A607B681B68996828
:103BC0007B681B7E5A007B681B680A439A607B688F
:103BD00093F82030002B1BD07B681B685A687B68E9
:103BE0001B6842F400625A607B681B685A687B68F5
:103BF0001B6822F460425A607B681B6859687B68C6
:103C00005B6A013B5A037B681B680A435A6007E002
:103C10007B681B685A687B681B6822F400625A60E4
:103C20007B681B68DA6A7B681B6822F47002DA62C0
:103C30007B681B68D96A7B68DB69013B1A057B6876
:103C40001B680A43DA627B681B689A687B681B689A
:103C500022F400729A607B681B6899687B6893F80D
:103C600030305A027B681B680A439A607B681B6885
:103C70009A687B681B6822F480629A607B681B6884
:103C800099687B685B699A027B681B680A439A6043
:103C900000BF1437BD465DF8047B70470023014028
:103CA0000100000F80B485B000AF78607B6803F03E
:103CB0000703FB600C4BDB68BB60BA684FF6FF0381
:103CC0001340BB60FB681A02BB68134343F0BF6339
:103CD00043F40033BB60044ABB68D36000BF1437B1
:103CE000BD465DF8047B704700ED00E080B400AF96
:103CF000044BDB681B0A03F007031846BD465DF85A
:103D0000047B704700ED00E080B483B000AF034651
:103D1000FB7197F90730002B0BDBFB7903F01F02D7
:103D2000074997F907305B09012000FA02F241F8D0
:103D3000232000BF0C37BD465DF8047B704700BFF1
:103D400000E100E080B483B000AF03463960FB714E
:103D500097F90730002B0ADB3B68DAB20C4997F978
:103D600007301201D2B20B4483F800230AE03B680B
:103D7000DAB20849FB7903F00F03043B1201D2B217
:103D80000B441A7600BF0C37BD465DF8047B7047C4
:103D900000E100E000ED00E080B489B000AFF86021
:103DA000B9607A60FB6803F00703FB61FB69C3F14C
:103DB0000703042B28BF0423BB61FB690433062BD4
:103DC00002D9FB69033B00E000237B614FF0FF3227
:103DD000BB6902FA03F3DA43BB681A407B699A4075
:103DE0004FF0FF317B6901FA03F3D9437B680B4045
:103DF000134318462437BD465DF8047B704780B5F1
:103E000082B000AF78607868FFF74CFF00BF0837DA
:103E1000BD4680BD80B586B000AF0346B9607A600C
:103E2000FB7300237B61FFF761FF78617A68B968F3
:103E30007869FFF7B1FF024697F90F30114618462F
:103E4000FFF780FF00BF1837BD4680BD80B582B048
:103E500000AF0346FB7197F907301846FFF754FF90
:103E600000BF0837BD4680BD80B582B000AF786026
:103E70007B68002B01D1012314E07B681B79DBB246
:103E8000002B05D17B6800225A717868FDF7B8F9DC
:103E90007B6802221A717B6800221A617B6801220A
:103EA0001A71002318460837BD4680BD80B489B01A
:103EB00000AFF860B9607A600023FB77FB68002BE5
:103EC00002D0BB68002B01D1012342E0FB685B7983
:103ED000012B01D102233CE0FB6801225A71FB68EF
:103EE00002221A71FB681B681B68BB617B6803F0C8
:103EF000100340F6FE7202FA03F3DB43BA69134083
:103F0000BB61BB681A68BB685B6813437B617B68F5
:103F100003F010037A6902FA03F3BA691343BB6131
:103F2000FB681B68BA691A60FB681B6819687B68C4
:103F300003F01003C02202FA03F3DA43FB681B68A4
:103F40000A401A60FB6801221A71FB6800225A714C
:103F5000FB7F18462437BD465DF8047B70470000A0
:103F600080B489B000AF7860396000237B610023A2
:103F70003B610023BB610023FB6165E10122FB691A
:103F800002FA03F37B613B681B687A6913403B616B
:103F90003A697B699A4240F054813B685B6803F060
:103FA0000303012B05D03B685B6803F00303022B7E
:103FB00030D17B689B68BB61FB695B00032202FA1E
:103FC00003F3DB43BA691340BB613B68DA68FB6902
:103FD0005B0002FA03F3BA691343BB617B68BA69F9
:103FE0009A607B685B68BB610122FB6902FA03F39C
:103FF000DB43BA691340BB613B685B681B0903F094
:104000000102FB6902FA03F3BA691343BB617B68DF
:10401000BA695A603B685B6803F00303032B17D04F
:104020007B68DB68BB61FB695B00032202FA03F378
:10403000DB43BA691340BB613B689A68FB695B006C
:1040400002FA03F3BA691343BB617B68BA69DA60A9
:104050003B685B6803F00303022B23D1FB69DA089A
:104060007B68083253F82230BB61FB6903F0070319
:104070009B000F2202FA03F3DB43BA691340BB61D2
:104080003B681A69FB6903F007039B0002FA03F31C
:10409000BA691343BB61FB69DA087B680832B96906
:1040A00043F822107B681B68BB61FB695B0003223D
:1040B00002FA03F3DB43BA691340BB613B685B68F8
:1040C00003F00302FB695B0002FA03F3BA691343CE
:1040D000BB617B68BA691A603B685B6803F4403374
:1040E000002B00F0AE800023FB605D4B5B6C5C4AF4
:1040F00043F4804353645A4B5B6C03F48043FB608E
:10410000FB68584AFB699B08023352F82330BB61B5
:10411000FB6903F003039B000F2202FA03F3DB4366
:10412000BA691340BB617B684F4A934225D07B68D4
:104130004E4A93421FD07B684D4A934219D07B6808
:104140004C4A934213D07B684B4A93420DD07B6814
:104150004A4A934207D07B68494A934201D10623D9
:104160000CE007230AE0052308E0042306E003230C
:1041700004E0022302E0012300E00023FA6902F0D8
:10418000030292009340BA691343BB613549FB694E
:104190009B080233BA6941F823203A4B9B68BB6104
:1041A0003B69DB43BA691340BB613B685B6803F45E
:1041B0008013002B03D0BA693B691343BB61314ABA
:1041C000BB6993602F4BDB68BB613B69DB43BA691A
:1041D0001340BB613B685B6803F40013002B03D002
:1041E000BA693B691343BB61264ABB69D360254B5F
:1041F0005B68BB613B69DB43BA691340BB613B68E9
:104200005B6803F40033002B03D0BA693B691343A6
:10421000BB611C4ABB6953601A4B1B68BB613B699D
:10422000DB43BA691340BB613B685B6803F48033CE
:10423000002B03D0BA693B691343BB61114ABB69C8
:104240001360FB690133FB61FB690F2B7FF696AEB0
:1042500000BF00BF2437BD465DF8047B704700BF38
:1042600000380240003801400000024000040240D3
:1042700000080240000C02400010024000140240FE
:1042800000180240003C014080B485B000AF786067
:104290000B467B807B681A697B881340002B02D019
:1042A0000123FB7301E00023FB73FB7B18461437EB
:1042B000BD465DF8047B704780B483B000AF786082
:1042C0000B467B8013467B707B78002B03D07A886B
:1042D0007B689A6103E07B881A047B689A6100BF5F
:1042E0000C37BD465DF8047B7047000080B584B094
:1042F00000AF786039607B68002B01D10123CCE0EE
:10430000684B1B6803F00F033A689A420CD9654B5F
:104310003A68D2B21A70634B1B6803F00F033A6815
:104320009A4201D00123B8E07B681B6803F00203C6
:10433000002B20D07B681B6803F00403002B05D002
:10434000594B9B68584A43F4E05393607B681B6861
:1043500003F00803002B05D0534B9B68524A43F4EB
:1043600060439360504B9B6823F0F0027B689B682E
:104370004D4913438B607B681B6803F00103002BDE
:1043800044D07B685B68012B07D1474B1B6803F463
:104390000033002B19D101237FE07B685B68022B7F
:1043A00003D07B685B68032B07D13F4B1B6803F08E
:1043B0000073002B09D101236FE03B4B1B6803F016
:1043C0000203002B01D1012367E0374B9B6823F0E8
:1043D00003027B685B68344913438B60FFF722F864
:1043E000F8600AE0FFF71EF80246FB68D31A41F2B4
:1043F0008832934201D903234FE02B4B9B6803F093
:104400000C027B685B689B009A42EBD1254B1B68D2
:1044100003F00F033A689A420CD2224B3A68D2B2A8
:104420001A70204B1B6803F00F033A689A4201D0C0
:10443000012332E07B681B6803F00403002B08D0E3
:10444000194B9B6823F4E0527B68DB6816491343E1
:104450008B607B681B6803F00803002B09D0124BAC
:104460009B6823F460427B681B69DB000E491343A1
:104470008B6000F087F802460B4B9B681B0903F02A
:104480000F030A49CB5C22FA03F3094A1360094B74
:104490001B681846FEF71EF9002318461037BD4664
:1044A00080BD00BF003C0240003802400CBD000847
:1044B0004C0000205000002080B400AF034B1B686C
:1044C0001846BD465DF8047B704700BF4C000020D5
:1044D00080B500AFFFF7F0FF0246054B9B689B0AD3
:1044E00003F007030349CB5C22FA03F3184680BDAF
:1044F000003802401CBD000880B500AFFFF7DCFFAC
:104500000246054B9B685B0B03F007030349CB5C3A
:1045100022FA03F3184680BD003802401CBD000893
:1045200080B483B000AF786039607B680F221A6076
:10453000124B9B6803F003027B685A600F4B9B6829
:1045400003F0F0027B689A600C4B9B6803F4E05226
:104550007B68DA60094B9B68DB0803F4E0527B68F8
:104560001A61074B1B6803F00F023B681A6000BF1B
:104570000C37BD465DF8047B704700BF0038024031
:10458000003C02402DE9B04FAEB000AF0023C7F8A9
:10459000AC300023C7F8B4300023C7F8A83000239C
:1045A000C7F8A4300023C7F8B030CB4B9B6803F0AA
:1045B0000C030C2B00F2068201A252F823F000BF7C
:1045C000F5450008C5490008C5490008C549000867
:1045D000FD450008C5490008C5490008C54900084F
:1045E00005460008C5490008C5490008C549000836
:1045F000F5470008B94BC7F8B030E7E1B84BC7F84A
:10460000B030E3E1B44B5B6803F03F03C7F8AC3074
:10461000B14B5B6803F48003002B71D0AE4B5B6839
:104620009B090022C7F89830C7F89C20D7F898302B
:10463000C3F30803C7F890300023C7F89430D7E9D4
:10464000244522462B464FF000004FF0000159014F
:1046500041EAD261500102460B462146511A3964A3
:10466000294663EB01037B644FF000024FF0000327
:10467000D7E9108949468B01414643EA9163414697
:104680008A014146511AB963494663EB0103FB6352
:104690004FF000024FF00003D7E90E894946CB00E6
:1046A000414643EA51734146CA0010461946034643
:1046B00022469B183B632B460A4642EB03037B636F
:1046C0004FF000024FF00003D7E90C4529464B029A
:1046D000214643EAD15321464A0210461946D7F8EB
:1046E000AC300022C7F88830C7F88C20D7E92223E5
:1046F000FCF7FAFA02460B461346C7F8B43067E0F7
:10470000754B5B689B090022C7F88030C7F884208E
:10471000D7F88030C3F30803BB670023FB67D7E9F2
:104720001E4522462B464FF000004FF00001590174
:1047300041EAD261500102460B462146511AB96244
:10474000294663EB0103FB624FF000024FF00003C8
:10475000D7E90A8949468B01414643EA91634146BC
:104760008A014146B2EB010A494663EB010B4FF067
:1047700000024FF000034FEACB0343EA5A734FEABB
:10478000CA0292469B4623461AEB03033B622B4622
:104790004BEB03037B624FF000024FF00003D7E9BD
:1047A000084529468B02214643EA915321468A0255
:1047B00010461946D7F8AC3000223B677A67D7E934
:1047C0001C23FCF791FA02460B461346C7F8B43097
:1047D000414B5B681B0C03F0030301335B00C7F81C
:1047E000A830D7F8B420D7F8A830B2FBF3F3C7F855
:1047F000B030EBE0384B5B6803F03F03C7F8AC30F8
:10480000354B5B6803F48003002B6BD0324B5B6845
:104810009B090022BB66FA66BB6EC3F308033B66C6
:1048200000237B66D7E9184522462B464FF000004F
:104830004FF00001590141EAD261500102460B4696
:104840002146511AB961294663EB0103FB614FF020
:1048500000024FF00003D7E906AB59468B015146E1
:1048600043EA916351468A015146B2EB0108594629
:1048700063EB01094FF000024FF000034FEAC90358
:1048800043EA58734FEAC80290469946234618EB0C
:1048900003033B612B4649EB03037B614FF00002AE
:1048A0004FF00003D7E9044529464B02214643EA6D
:1048B000D15321464A0210461946D7F8AC3000229F
:1048C000BB65FA65D7E91623FCF70EFA02460B46DC
:1048D0001346C7F8B43065E0003802400024F40005
:1048E00000127A003D4B5B689B0900221846114676
:1048F000C0F308033B6500237B65D7E91489424672
:104900004B464FF000004FF00001590141EAD261DF
:10491000500102460B464146511AB960494663EBC5
:104920000103FB604FF000024FF00003D7E902AB38
:1049300059468B01514643EA916351468A015146DB
:10494000541A594663EB01054FF000024FF0000383
:10495000EB0043EA5473E20014461D464346E31855
:104960003B604B4645EB03037B604FF000024FF08A
:104970000003D7E9004529468B02214643EA9153BB
:1049800021468A0210461946D7F8AC300022BB6493
:10499000FA64D7E91223FCF7A7F902460B4613463F
:1049A000C7F8B4300D4B5B681B0F03F00703C7F863
:1049B000A430D7F8B420D7F8A430B2FBF3F3C7F88B
:1049C000B03003E0064BC7F8B03000BFD7F8B030C6
:1049D0001846B837BD46BDE8B08F00BF003802406A
:1049E0000024F40080B586B000AF78607B68002BAF
:1049F00001D101238DE27B681B6803F00103002BCA
:104A000000F08380944B9B6803F00C03042B19D0B7
:104A1000914B9B6803F00C03082B06D18E4B5B680F
:104A200003F48003B3F5800F0CD08B4B9B6803F02D
:104A30000C030C2B12D1884B5B6803F48003B3F595
:104A4000800F0BD1844B1B6803F40033002B5BD029
:104A50007B685B68002B57D101235AE27B685B6857
:104A6000B3F5803F06D17C4B1B687B4A43F480330F
:104A700013601DE07B685B68B3F5A02F0CD1764B0B
:104A80001B68754A43F480231360734B1B68724A9A
:104A900043F4803313600BE06F4B1B686E4A23F4C2
:104AA000803313606C4B1B686B4A23F480231360C4
:104AB0007B685B68002B13D0FEF7B4FC386108E01C
:104AC000FEF7B0FC02463B69D31A642B01D90323DD
:104AD0001FE2614B1B6803F40033002BF0D014E09D
:104AE000FEF7A0FC386108E0FEF79CFC02463B693B
:104AF000D31A642B01D903230BE2574B1B6803F431
:104B00000033002BF0D100E000BF7B681B6803F08E
:104B10000203002B6FD0504B9B6803F00C03002B5B
:104B200017D04D4B9B6803F00C03082B05D14A4B63
:104B30005B6803F48003002B0BD0474B9B6803F0AA
:104B40000C030C2B1CD1444B5B6803F48003002B3B
:104B500016D1414B1B6803F00203002B05D07B6884
:104B6000DB68012B01D00123D3E13B4B1B6823F011
:104B7000F8027B681B69DB00374913430B603AE09E
:104B80007B68DB68002B20D0344B01221A60FEF7D3
:104B900049FC386108E0FEF745FC02463B69D31A40
:104BA000022B01D90323B4E12B4B1B6803F0020352
:104BB000002BF0D0284B1B6823F0F8027B681B69A0
:104BC000DB00254913430B6015E0244B00221A60DB
:104BD000FEF728FC386108E0FEF724FC02463B693A
:104BE000D31A022B01D9032393E11B4B1B6803F05B
:104BF0000203002BF0D17B681B6803F00803002B35
:104C000036D07B685B69002B16D0154B01221A60E9
:104C1000FEF708FC386108E0FEF704FC02463B6939
:104C2000D31A022B01D9032373E10B4B5B6F03F003
:104C30000203002BF0D01BE0094B00221A60FEF7A4
:104C4000F1FB38610EE0FEF7EDFB02463B69D31A3B
:104C5000022B07D903235CE10038024000004742E1
:104C6000800E47428A4B5B6F03F00203002BEAD1B0
:104C70007B681B6803F00403002B00F0978000237F
:104C8000FB75834B1B6C03F08053002B0FD100236B
:104C9000BB607F4B1B6C7E4A43F0805313647C4B9C
:104CA0001B6C03F08053BB60BB680123FB75794B21
:104CB0001B6803F48073002B18D1764B1B68754A70
:104CC00043F480731360FEF7ADFB386108E0FEF734
:104CD000A9FB02463B69D31A022B01D9032318E131
:104CE0006C4B1B6803F48073002BF0D07B689B68CF
:104CF000012B06D1664B1B6F654A43F00103136716
:104D00001CE07B689B68052B0CD1614B1B6F604AD4
:104D100043F0040313675E4B1B6F5D4A43F00103CE
:104D200013670BE05A4B1B6F594A23F001031367BB
:104D3000574B1B6F564A23F0040313677B689B682D
:104D4000002B15D0FEF76EFB38610AE0FEF76AFB18
:104D500002463B69D31A41F28832934201D90323B8
:104D6000D7E04B4B1B6F03F00203002BEED014E097
:104D7000FEF758FB38610AE0FEF754FB02463B6938
:104D8000D31A41F28832934201D90323C1E0404B48
:104D90001B6F03F00203002BEED1FB7D012B05D12D
:104DA0003B4B1B6C3A4A23F0805313647B689B692E
:104DB000002B00F0AD80364B9B6803F00C03082BF2
:104DC00060D07B689B69022B45D1334B00221A606F
:104DD000FEF728FB386108E0FEF724FB02463B693A
:104DE000D31A022B01D9032393E0294B1B6803F04C
:104DF0000073002BF0D17B68DA697B681B6A1A4369
:104E00007B685B6A9B011A437B689B6A5B08013B7A
:104E10001B041A437B68DB6A1B061A437B681B6B07
:104E20001B071B4913434B601B4B01221A60FEF703
:104E3000F9FA386108E0FEF7F5FA02463B69D31A41
:104E4000022B01D9032364E0114B1B6803F00073AC
:104E5000002BF0D05CE0104B00221A60FEF7E2FA63
:104E6000386108E0FEF7DEFA02463B69D31A022BEE
:104E700001D903234DE0064B1B6803F00073002BA0
:104E8000F0D145E07B689B69012B07D1012340E00D
:104E90000038024000700040600047421F4B5B68D2
:104EA000FB607B689B69012B30D0FB6803F48002B8
:104EB0007B68DB699A4229D1FB6803F03F027B687B
:104EC0001B6A9A4222D1FA6847F6C07313407A6887
:104ED000526A9201934219D1FB6803F440327B6815
:104EE0009B6A5B08013B1B049A420FD1FB6803F0ED
:104EF00070627B68DB6A1B069A4207D1FB6803F08D
:104F0000E0427B681B6B1B079A4201D0012300E043
:104F1000002318461837BD4680BD00BF0038024048
:104F200080B582B000AF78607B68002B01D101238F
:104F30007BE07B685B6A002B08D17B685B68B3F51C
:104F4000827F09D07B680022DA6105E07B6800225D
:104F50001A617B6800225A617B6800229A627B6832
:104F600093F85130DBB2002B06D17B68002283F826
:104F700050207868FDF73EFB7B68022283F85120C1
:104F80007B681B681A687B681B6822F040021A6005
:104F90007B685B6803F482727B689B6803F404435C
:104FA0001A437B68DB6803F400631A437B681B6960
:104FB00003F002031A437B685B6903F001031A43A1
:104FC0007B689B6903F400731A437B68DB6903F019
:104FD00038031A437B681B6A03F0800342EA03012B
:104FE0007B689B6A03F400527B681B680A431A6063
:104FF0007B689B691B0C03F004017B685B6A03F010
:1050000010027B681B680A435A607B681B68DA6978
:105010007B681B6822F40062DA617B6800225A65B3
:105020007B68012283F85120002318460837BD46CB
:1050300080BD80B582B000AF78607B68002B01D165
:10504000012341E07B6893F83D30DBB2002B06D1B1
:105050007B68002283F83C207868FDF777FF7B6847
:10506000022283F83D207B681A687B680433194666
:10507000104600F0C9FC7B68012283F846207B685B
:10508000012283F83E207B68012283F83F207B6861
:10509000012283F840207B68012283F841207B684D
:1050A000012283F842207B68012283F843207B6839
:1050B000012283F844207B68012283F845207B6825
:1050C000012283F83D20002318460837BD4680BDE5
:1050D00080B485B000AF78607B6893F83D30DBB278
:1050E000012B01D0012346E07B68022283F83D209A
:1050F0007B681B68234A934222D07B681B68B3F10C
:10510000804F1DD07B681B681F4A934218D07B6874
:105110001B681E4A934213D07B681B681C4A93424B
:105120000ED07B681B681B4A934209D07B681B68C2
:10513000194A934204D07B681B68184A934211D1E4
:105140007B681B689B6803F00703FB60FB68062B0A
:1051500010D07B681B681A687B681B6842F00102EC
:105160001A6007E07B681B681A687B681B6842F05E
:1051700001021A60002318461437BD465DF8047B0F
:10518000704700BF000001400004004000080040DC
:10519000000C0040000401400040014000180040A5
:1051A00080B485B000AF78607B6893F83D30DBB2A7
:1051B000012B01D001234EE07B68022283F83D20C1
:1051C0007B681B68DA687B681B6842F00102DA6062
:1051D0007B681B68234A934222D07B681B68B3F12B
:1051E000804F1DD07B681B681F4A934218D07B6894
:1051F0001B681E4A934213D07B681B681C4A93426B
:105200000ED07B681B681B4A934209D07B681B68E1
:10521000194A934204D07B681B68184A934211D103
:105220007B681B689B6803F00703FB60FB68062B29
:1052300010D07B681B681A687B681B6842F001020B
:105240001A6007E07B681B681A687B681B6842F07D
:1052500001021A60002318461437BD465DF8047B2E
:10526000704700BF000001400004004000080040FB
:10527000000C0040000401400040014000180040C4
:1052800080B582B000AF78607B68002B01D101232C
:1052900041E07B6893F83D30DBB2002B06D17B68A0
:1052A000002283F83C20786800F039F87B680222FD
:1052B00083F83D207B681A687B68043319461046E2
:1052C00000F0A2FB7B68012283F846207B68012264
:1052D00083F83E207B68012283F83F207B6801220F
:1052E00083F840207B68012283F841207B680122FB
:1052F00083F842207B68012283F843207B680122E7
:1053000083F844207B68012283F845207B680122D2
:1053100083F83D20002318460837BD4680BD80B481
:1053200083B000AF786000BF0C37BD465DF8047BEA
:105330007047000080B584B000AF786039603B688A
:10534000002B09D17B6893F83E30DBB2012B14BFF0
:1053500001230023DBB222E03B68042B09D17B68E8
:1053600093F83F30DBB2012B14BF01230023DBB2E3
:1053700015E03B68082B09D17B6893F84030DBB21D
:10538000012B14BF01230023DBB208E07B6893F8F4
:105390004130DBB2012B14BF01230023DBB2002B11
:1053A00001D001237CE03B68002B04D17B68022202
:1053B00083F83E2013E03B68042B04D17B68022273
:1053C00083F83F200BE03B68082B04D17B68022266
:1053D00083F8402003E07B68022283F841207B6849
:1053E0001B6801223968184600F0FEFD7B681B68C7
:1053F0002D4A934204D07B681B682C4A934201D10A
:10540000012300E00023002B07D07B681B685A6C47
:105410007B681B6842F400425A647B681B68224A1E
:10542000934222D07B681B68B3F1804F1DD07B680C
:105430001B681F4A934218D07B681B681D4A934221
:1054400013D07B681B681C4A93420ED07B681B6894
:10545000164A934209D07B681B68184A934204D0CD
:105460007B681B68164A934211D17B681B689B6856
:1054700003F00703FB60FB68062B10D07B681B68FA
:105480001A687B681B6842F001021A6007E07B68BB
:105490001B681A687B681B6842F001021A600023CF
:1054A00018461037BD4680BD000001400004014091
:1054B0000004004000080040000C00400040014093
:1054C0000018004080B584B000AF78607B681B682E
:1054D000DB68FB607B681B681B69BB60BB6803F013
:1054E0000203002B20D0FB6803F00203002B1BD02B
:1054F0007B681B686FF002021A617B6801221A77D1
:105500007B681B689B6903F00303002B03D078685A
:1055100000F05BFA05E0786800F04DFA786800F07A
:105520005EFA7B6800221A77BB6803F00403002B45
:1055300020D0FB6803F00403002B1BD07B681B68A2
:105540006FF004021A617B6802221A777B681B687D
:105550009B6903F44073002B03D0786800F035FAA0
:1055600005E0786800F027FA786800F038FA7B6880
:1055700000221A77BB6803F00803002B20D0FB68D9
:1055800003F00803002B1BD07B681B686FF0080238
:105590001A617B6804221A777B681B68DB6903F059
:1055A0000303002B03D0786800F00FFA05E0786859
:1055B00000F001FA786800F012FA7B6800221A778E
:1055C000BB6803F01003002B20D0FB6803F010032E
:1055D000002B1BD07B681B686FF010021A617B6880
:1055E00008221A777B681B68DB6903F44073002B81
:1055F00003D0786800F0E9F905E0786800F0DBF99D
:10560000786800F0ECF97B6800221A77BB6803F039
:105610000103002B0CD0FB6803F00103002B07D023
:105620007B681B686FF001021A617868FCF712FF53
:10563000BB6803F08003002B0CD0FB6803F08003F1
:10564000002B07D07B681B686FF080021A617868B6
:1056500000F0C8FDBB6803F04003002B0CD0FB68D2
:1056600003F04003002B07D07B681B686FF04002FB
:105670001A61786800F0BDF9BB6803F02003002BC5
:105680000CD0FB6803F02003002B07D07B681B685D
:105690006FF020021A61786800F09AFD00BF1037A1
:1056A000BD4680BD80B586B000AFF860B9607A6055
:1056B0000023FB75FB6893F83C30012B01D10223DA
:1056C000AEE0FB68012283F83C207B680C2B00F2E3
:1056D0009F8001A252F823F00D57000811580008CE
:1056E00011580008115800084D57000811580008BB
:1056F00011580008115800088F5700081158000869
:105700001158000811580008CF570008FB681B68A3
:10571000B968184600F01EFAFB681B689A69FB68B6
:105720001B6842F008029A61FB681B689A69FB6873
:105730001B6822F004029A61FB681B689969BB68C8
:105740001A69FB681B680A439A6164E0FB681B687E
:10575000B968184600F06EFAFB681B689A69FB6826
:105760001B6842F400629A61FB681B689A69FB68D7
:105770001B6822F480629A61FB681B689969BB68A8
:105780001B691A02FB681B680A439A6143E0FB68C5
:105790001B68B968184600F0C3FAFB681B68DA6931
:1057A000FB681B6842F00802DA61FB681B68DA6973
:1057B000FB681B6822F00402DA61FB681B68D96988
:1057C000BB681A69FB681B680A43DA6123E0FB685F
:1057D0001B68B968184600F017FBFB681B68DA699C
:1057E000FB681B6842F40062DA61FB681B68DA69D7
:1057F000FB681B6822F48062DA61FB681B68D96968
:10580000BB681B691A02FB681B680A43DA6102E085
:105810000123FB7500BFFB68002283F83C20FB7D61
:1058200018461837BD4680BD80B584B000AF78609B
:1058300039600023FB737B6893F83C30012B01D166
:105840000223B4E07B68012283F83C207B680222BB
:1058500083F83D207B681B689B68BB60BB6823F0B6
:105860007703BB60BB6823F47F43BB607B681B6826
:10587000BA689A603B681B68B3F5005F3ED0B3F529
:10588000005F00F28780B3F5805F00F08680B3F59B
:10589000805F7FD8702B1AD0702B7BD8602B50D0B4
:1058A000602B77D8502B3CD0502B73D8402B58D03E
:1058B000402B6FD8302B64D0302B6BD8202B60D08E
:1058C000202B67D8002B5CD0102B5AD062E07B686D
:1058D00018683B6899683B685A683B68DB6800F069
:1058E00063FB7B681B689B68BB60BB6843F0770306
:1058F000BB607B681B68BA689A604FE07B68186879
:105900003B6899683B685A683B68DB6800F04CFB71
:105910007B681B689A687B681B6842F480429A60C7
:105920003CE07B6818683B6859683B68DB681A464E
:1059300000F0C0FA7B681B685021184600F019FB84
:105940002CE07B6818683B6859683B68DB681A463E
:1059500000F0DFFA7B681B686021184600F009FB45
:105960001CE07B6818683B6859683B68DB681A462E
:1059700000F0A0FA7B681B684021184600F0F9FA95
:105980000CE07B681A683B681B681946104600F0FB
:10599000F0FA03E00123FB7300E000BF7B68012203
:1059A00083F83D207B68002283F83C20FB7B18466F
:1059B0001037BD4680BD80B483B000AF786000BFB3
:1059C0000C37BD465DF8047B704780B483B000AFF0
:1059D000786000BF0C37BD465DF8047B704780B42B
:1059E00083B000AF786000BF0C37BD465DF8047B24
:1059F000704780B483B000AF786000BF0C37BD46FD
:105A00005DF8047B7047000080B485B000AF78601B
:105A100039607B681B68FB607B68434A934213D004
:105A20007B68B3F1804F0FD07B68404A93420BD024
:105A30007B683F4A934207D07B683E4A934203D03B
:105A40007B683D4A934208D1FB6823F07003FB60FA
:105A50003B685B68FA681343FB607B68324A934299
:105A60002BD07B68B3F1804F27D07B682F4A9342BD
:105A700023D07B682E4A93421FD07B682D4A9342E5
:105A80001BD07B682C4A934217D07B682B4A9342E9
:105A900013D07B682A4A93420FD07B68294A9342ED
:105AA0000BD07B68284A934207D07B68274A9342F1
:105AB00003D07B68264A934208D1FB6823F44073E5
:105AC000FB603B68DB68FA681343FB60FB6823F00C
:105AD00080023B685B691343FB603B689A687B68A4
