:020000040800F2
:1000000000000220DD280008751E00087D1E000883
:10001000851E00088D1E0008951E000800000000C7
:100020000000000000000000000000009D1E00080D
:10003000AB1E000800000000B91E0008C71E000823
:100040002D2900082D2900082D2900082D29000838
:100050002D2900082D2900082D2900082D29000828
:100060002D2900082D2900082D2900082D29000818
:100070002D2900082D2900082D2900082D29000808
:100080002D2900082D2900082D2900082D290008F8
:100090002D2900082D2900082D2900082D290008E8
:1000A000D51E00082D2900082D2900082D2900083B
:1000B000E91E0008FD1E00082D2900082D29000852
:1000C0002D2900082D2900082D2900082D290008B8
:1000D0002D2900082D2900082D2900082D290008A8
:1000E0002D2900082D2900082D2900082D29000898
:1000F0002D290008111F00082D2900082D290008AE
:100100002D2900082D290008251F00082D29000889
:100110002D2900082D2900082D2900082D29000867
:100120002D2900082D2900082D2900082D29000857
:100130002D29000800000000000000002D29000803
:100140002D2900082D2900082D2900082D29000837
:100150002D2900082D2900082D2900082D29000827
:100160002D2900082D2900082D2900082D29000817
:100170002D2900082D2900082D2900080000000065
:10018000000000002D290008000000000000000011
:100190002D29000800000000000000002D290008A3
:1001A0000000000000000000000000002D290008F1
:1001B0002D2900082D2900082D2900082D290008C7
:0401C0002D290008DD
:1001D00010B5054C237833B9044B13B10448AFF381
:1001E00000800123237010BD0402002000000000E5
:1001F000C4AC000808B5034B1BB103490348AFF377
:10020000008008BD0000000008020020C4AC000807
:1002100001F0FF01102A2BDB10F0070F08D010F8B7
:10022000013B013A8B422DD010F0070F42B3F6D1BB
:10023000F0B441EA012141EA014122F007047FF0D4
:1002400000070023F0E80256083C85EA010586EA2B
:10025000010685FA47F5A3FA87F586FA47F6A5FA67
:1002600087F68EB9EED1F0BC01F0FF0102F0070273
:1002700032B110F8013B013A83EA010313B1F8D11E
:100280000020704701387047002D06BF35460338FF
:10029000073815F0010F07D1013015F4807F02BF38
:1002A000013015F4C03F0130F0BC0138704700BF89
:1002B000034613F8012B002AFBD1181A01387047A6
:1002C00081F0004102E000BF83F0004330B54FEA07
:1002D00041044FEA430594EA050F08BF90EA020F74
:1002E0001FBF54EA000C55EA020C7FEA645C7FEA07
:1002F000655C00F0E2804FEA5454D4EB5555B8BF2A
:100300006D420CDD2C4480EA020281EA030382EA9A
:10031000000083EA010180EA020281EA0303362D2C
:1003200088BF30BD11F0004F4FEA01314FF4801CFF
:100330004CEA113102D0404261EB410113F0004F11
:100340004FEA03334CEA133302D0524263EB4303C8
:1003500094EA050F00F0A780A4F10104D5F1200E66
:100360000DDB02FA0EFC22FA05F2801841F10001C1
:1003700003FA0EF2801843FA05F359410EE0A5F195
:1003800020050EF1200E012A03FA0EFC28BF4CF0C6
:10039000020C43FA05F3C01851EBE37101F000457C
:1003A00007D54FF0000EDCF1000C7EEB00006EEB89
:1003B0000101B1F5801F1BD3B1F5001F0CD3490813
:1003C0005FEA30004FEA3C0C04F101044FEA44526A
:1003D00012F5800F80F09A80BCF1004F08BF5FEAF1
:1003E000500C50F1000041EB045141EA050130BDD1
:1003F0005FEA4C0C404141EB0101013C28BFB1F5E3
:10040000801FE9D291F0000F04BF01460020B1FA2D
:1004100081F308BF2033A3F10B03B3F120020CDA00
:100420000C3208DD02F1140CC2F10C0201FA0CF0DE
:1004300021FA02F10CE002F11402D8BFC2F1200C43
:1004400001FA02F120FA0CFCDCBF41EA0C019040F9
:10045000E41AA2BF01EB0451294330BD6FEA040442
:100460001F3C1CDA0C340EDC04F11404C4F120022D
:1004700020FA04F001FA02F340EA030021FA04F33F
:1004800045EA030130BDC4F10C04C4F1200220FA96
:1004900002F001FA04F340EA0300294630BD21FAD4
:1004A00004F0294630BD94F0000F83F4801306BF9A
:1004B00081F480110134013D4EE77FEA645C18BF8E
:1004C0007FEA655C29D094EA050F08BF90EA020F25
:1004D00005D054EA000C04BF1946104630BD91EA1D
:1004E000030F1EBF0021002030BD5FEA545C05D120
:1004F0004000494128BF41F0004130BD14F580045F
:100500003CBF01F5801130BD01F0004545F0FE41D2
:1005100041F470014FF0000030BD7FEA645C1ABF07
:10052000194610467FEA655C1CBF0B46024650EA3E
:10053000013406BF52EA033591EA030F41F400216A
:1005400030BD00BF90F0000F04BF0021704730B5F0
:100550004FF4806404F132044FF000054FF00001C5
:1005600050E700BF90F0000F04BF0021704730B586
:100570004FF4806404F1320410F0004548BF40425B
:100580004FF000013EE700BF42004FEAE2014FEAB0
:1005900031014FEA02701FBF12F07F4393F07F4F8B
:1005A00081F06051704732F07F4208BF704793F08E
:1005B0007F4F04BF41F40021704730B54FF46074A1
:1005C00001F0004521F000411CE700BF50EA0102A4
:1005D00008BF704730B54FF000050AE050EA01024D
:1005E00008BF704730B511F0004502D5404261EBBD
:1005F00041014FF4806404F132045FEA915C3FF4FE
:10060000D8AE4FF003025FEADC0C18BF03325FEA9A
:10061000DC0C18BF033202EBDC02C2F1200300FA4B
:1006200003FC20FA02F001FA03FE40EA0E0021FA70
:1006300002F11444BDE600BF70B54FF0FF0C4CF45E
:10064000E06C1CEA11541DBF1CEA135594EA0C0F10
:1006500095EA0C0F00F0DEF82C4481EA030621EA4B
:100660004C5123EA4C5350EA013518BF52EA033586
:1006700041F4801143F4801338D0A0FB02CE4FF038
:100680000005E1FB02E506F00042E0FB03E54FF068
:100690000006E1FB03569CF0000F18BF4EF0010E60
:1006A000A4F1FF04B6F5007F64F5407404D25FEA5C
:1006B0004E0E6D4146EB060642EAC62141EA55510F
:1006C0004FEAC52040EA5E504FEACE2EB4F1FD0C51
:1006D00088BFBCF5E06F1ED8BEF1004F08BF5FEACF
:1006E000500E50F1000041EB045170BD06F0004681
:1006F00046EA010140EA020081EA0301B4EB5C042E
:10070000C2BFD4EB0C0541EA045170BD41F4801125
:100710004FF0000E013C00F3AB8014F1360FDEBF4A
:10072000002001F0004170BDC4F10004203C35DA26
:100730000C341BDC04F11404C4F1200500FA05F3A9
:1007400020FA04F001FA05F240EA020001F000424A
:1007500021F0004110EBD37021FA04F642EB0601C0
:100760005EEA430E08BF20EAD37070BDC4F10C04EA
:10077000C4F1200500FA04F320FA05F001FA04F2AE
:1007800040EA020001F0004110EBD37041F100019A
:100790005EEA430E08BF20EAD37070BDC4F12005A5
:1007A00000FA05F24EEA020E20FA04F301FA05F20D
:1007B00043EA020321FA04F001F0004121FA04F2B5
:1007C00020EA020000EBD3705EEA430E08BF20EA85
:1007D000D37070BD94F0000F0FD101F000464000BF
:1007E00041EB010111F4801F08BF013CF7D041EA41
:1007F000060195F0000F18BF704703F00046520045
:1008000043EB030313F4801F08BF013DF7D043EA15
:100810000603704794EA0C0F0CEA135518BF95EACB
:100820000C0F0CD050EA410618BF52EA4306D1D152
:1008300081EA030101F000414FF0000070BD50EA71
:10084000410606BF1046194652EA430619D094EAFB
:100850000C0F02D150EA013613D195EA0C0F05D1E5
:1008600052EA03361CBF104619460AD181EA030139
:1008700001F0004141F0FE4141F470014FF00000F1
:1008800070BD41F0FE4141F4780170BD70B54FF08C
:10089000FF0C4CF4E06C1CEA11541DBF1CEA13550C
:1008A00094EA0C0F95EA0C0F00F0A7F8A4EB0504EE
:1008B00081EA030E52EA03354FEA013100F08880E5
:1008C0004FEA03334FF0805545EA131343EA1263AE
:1008D0004FEA022245EA111545EA10654FEA002663
:1008E0000EF000419D4208BF964244F1FD0404F51C
:1008F000407402D25B084FEA3202B61A65EB030578
:100900005B084FEA32024FF480104FF4002CB6EB34
:10091000020E75EB030E22BFB61A754640EA0C00B4
:100920005B084FEA3202B6EB020E75EB030E22BFF4
:10093000B61A754640EA5C005B084FEA3202B6EB35
:10094000020E75EB030E22BFB61A754640EA9C00F4
:100950005B084FEA3202B6EB020E75EB030E22BFC4
:10096000B61A754640EADC0055EA060E18D04FEA82
:10097000051545EA16754FEA06164FEAC30343EA22
:1009800052734FEAC2025FEA1C1CC0D111F4801FEF
:100990000BD141EA00014FF000004FF0004CB6E7E8
:1009A00011F4801F04BF01430020B4F1FD0C88BF87
:1009B000BCF5E06F3FF6AFAEB5EB030C04BFB6EB92
:1009C000020C5FEA500C50F1000041EB045170BD85
:1009D0000EF0004E4EEA113114EB5C04C2BFD4EBB2
:1009E0000C0541EA045170BD41F480114FF0000E36
:1009F000013C90E645EA060E8DE60CEA135594EAB2
:100A00000C0F08BF95EA0C0F3FF43BAF94EA0C0FB4
:100A10000AD150EA01347FF434AF95EA0C0F7FF429
:100A200025AF104619462CE795EA0C0F06D152EA7D
:100A300003353FF4FDAE1046194622E750EA410661
:100A400018BF52EA43067FF4C5AE50EA41047FF472
:100A50000DAF52EA43057FF4EBAE12E74FF0FF3CD7
:100A600006E000BF4FF0010C02E000BF4FF0010CA8
:100A70004DF804CD4FEA410C7FEA6C5C4FEA430C21
:100A800018BF7FEA6C5C1BD001B050EA410C0CBF70
:100A900052EA430C91EA030F02BF90EA020F0020D2
:100AA000704710F1000F91EA030F58BF994208BF39
:100AB00090422CBFD8176FEAE37040F001007047F6
:100AC0004FEA410C7FEA6C5C02D150EA013C07D14D
:100AD0004FEA430C7FEA6C5CD6D152EA033CD3D098
:100AE0005DF8040B704700BF8446104662468C4692
:100AF0001946634600E000BF01B5FFF7B7FF0028C5
:100B000048BF10F1000F01BD4DF808EDFFF7F4FFED
:100B10000CBF012000205DF808FB00BF4DF808ED78
:100B2000FFF7EAFF34BF012000205DF808FB00BF9B
:100B30004DF808EDFFF7E0FF94BF012000205DF8BD
:100B400008FB00BF4DF808EDFFF7CEFF94BF012072
:100B500000205DF808FB00BF4DF808EDFFF7C4FF6B
:100B600034BF012000205DF808FB00BF4FEA410CB4
:100B70007FEA6C5C02D150EA013C0AD14FEA430C97
:100B80007FEA6C5C02D152EA033C02D14FF00000D4
:100B900070474FF0010070474FEA410212F5001212
:100BA00015D211D56FF47873B3EB625212D94FEAB4
:100BB000C12343F0004343EA505311F0004F23FA9E
:100BC00002F018BF404270474FF00000704750EAF3
:100BD000013005D111F0004008BF6FF000407047B0
:100BE0004FF00000704700BF4A0011D212F500120A
:100BF00011D20DD56FF47873B3EB62520ED44FEA75
:100C0000C12343F0004343EA505323FA02F07047F4
:100C10004FF00000704750EA013002D14FF0FF3032
:100C200070474FF0000070474FEA4102B2F1E043D5
:100C300024BFB3F5001CDCF1FE5C0DD901F0004CC3
:100C40004FEAC0024CEA5070B2F1004F40EB830013
:100C500008BF20F00100704711F0804F21D113F13F
:100C60003872BCBF01F00040704741F480114FEA78
:100C70005252C2F11802C2F1200C10FA0CF320FA01
:100C800002F018BF40F001004FEAC1234FEAD3231E
:100C900003FA0CFC40EA0C0023FA02F34FEA430388
:100CA000CCE77FEA625307D150EA01331EBF4FF011
:100CB000FE4040F44000704701F0004040F0FE402C
:100CC00040F40000704700BF53B94AB9002908BF7B
:100CD00000281CBF4FF0FF314FF0FF3000F0BEB9CD
:100CE000ADF1080C6DE904CE00F03CF8DDF804E04D
:100CF000DDE9022304B0704738B500220023044622
:100D00000D46FFF70BFF28B920462946BDE83840BD
:100D100000F00AB8204605F1004100F005F8404215
:100D200061EB410138BD00BFD0B50C4B0022064637
:100D30000F46FFF781FCFFF757FF0446FFF702FC61
:100D4000074B0022FFF778FC02460B463046394637
:100D5000FFF7BAFAFFF748FF2146D0BD0000F03D8B
:100D60000000F0412DE9F047089D8E460446884674
:100D7000002B4AD18A42174662D9B2FA82F64EB1A6
:100D8000C6F1200301FA06F820FA03F3B74043EA5C
:100D90000808B4404FEA174E1FFA87FCB8FBFEF173
:100DA000230C0EFB118843EA084301FB0CF29A4224
:100DB00009D9FB1801F1FF3080F0EA809A4240F235
:100DC000E78002393B449A1AA3B2B2FBFEF00EFB55
:100DD000102243EA024300FB0CFC9C4509D9FB1896
:100DE00000F1FF3280F0D6809C4540F2D3803B4436
:100DF000023840EA0140A3EB0C0300211DB1F3408F
:100E00000022C5E90032BDE8F0878B4205D90DB15B
:100E1000C5E9000100210846F5E7B3FA83F100298E
:100E200046D1734502D3824200F20581841A6EEBEB
:100E3000030201209046002DE5D0C5E90048E2E715
:100E4000002A00F09080B2FA82F6002E40F0A480D2
:100E50008A1A030C4FEA174E80B2BCB20121B2FBD2
:100E6000FEFC0EFB1C2243EA024304FB0CF29A42F6
:100E700007D9FB180CF1FF3802D29A4200F2E08049
:100E8000C4469B1AB3FBFEF20EFB123340EA034347
:100E900002FB04F49C4207D9FB1802F1FF3002D296
:100EA0009C4200F2CA8002461B1B42EA0C40A5E7A6
:100EB000C1F120068B4022FA06F71F430EFA01F417
:100EC00020FA06F32EFA06FE4FEA1749234300FAEA
:100ED00001F81FFA87FCBEFBF9F01C0C09FB10EEB1
:100EE00044EA0E4400FB0CFEA64502FA01F209D9C1
:100EF0003C1900F1FF3A80F09C80A64540F29980B1
:100F000002383C44A4EB0E041FFA83FEB4FBF9F351
:100F100009FB13444EEA044403FB0CFCA44508D926
:100F20003C1903F1FF3E80F08280A4457FD9023B4B
:100F30003C4443EA0040A4EB0C04A0FB02EC6445F3
:100F40007346E14662D35FD05DB1B8EB030264EB58
:100F5000090404FA06F622FA01F31E43CC40C5E95F
:100F6000006400214FE7B1FBF2FC010C41EA0E41A5
:100F700080B240EA01423B4638463C46B846BE464F
:100F80002026B1FBF7F1A2EB080241EA0C4166E72B
:100F9000014618E710462CE7C6F120022EFA02F3AC
:100FA000B740B14020FA02F24FEA174E0A43B3FBB2
:100FB000FEF8BCB20EFB1833110C41EA034108FBEA
:100FC00004F9B04089454FEA104380B23ED9791800
:100FD00008F1FF3C01D289451FD8A1EB0901B1FB03
:100FE000FEF909FB04F80EFB191192B242EA014224
:100FF000424529D2BA1809F1FF31C4D24245C2D2C2
:10100000A9F102013A44BEE7F0459DD2BEEB0203CE
:101010006CEB070C0138E14696E7A7EB0909494458
:10102000A8F1020CB1FBFEF909FB04F8DBE77346FB
:101030007FE7504666E70846FDE63B44023A33E761
:10104000ACF1020C3B441CE749469CE7A1EB0901CB
:10105000C446B1FBFEF909FB04F8C4E7704700BFC2
:1010600080B584B000AF3B4600221A605A609A6097
:10107000DA60214B214A1A601F4B00225A601E4B36
:1010800000229A601C4B00221A611B4B00221A7628
:10109000194B002283F82020174B0022DA62164BEE
:1010A000174A9A62144B0022DA60134B0122DA616C
:1010B000114B002283F830200F4B01225A610E4859
:1010C00001F09CFC0346002B01D000F029FE002318
:1010D0003B6001237B600023BB603B46194606480A
:1010E00001F06EFE0346002B01D000F019FE00BF98
:1010F0001037BD4680BD00BF200200200020014007
:101100000100000F80B58AB000AF786007F11403CA
:1011100000221A605A609A60DA601A617B681B6864
:10112000174A934227D100233B61164B5B6C154A4B
:1011300043F480735364134B5B6C03F480733B6123
:101140003B690023FB600F4B1B6B0E4A43F001030E
:1011500013630C4B1B6B03F00103FB60FB68132351
:101160007B610323BB610023FB6107F11403194674
:10117000054802F035F900BF2837BD4680BD00BFE5
:1011800000200140003802400000024080B58AB0D3
:1011900000AF07F1140300221A605A609A60DA6007
:1011A0001A6100233B61474B1B6B464A43F0040323
:1011B0001363444B1B6B03F004033B613B69002347
:1011C000FB60404B1B6B3F4A43F0800313633D4B76
:1011D0001B6B03F08003FB60FB680023BB60394B93
:1011E0001B6B384A43F001031363364B1B6B03F050
:1011F0000103BB60BB6800237B60324B1B6B314A31
:1012000043F0020313632F4B1B6B03F002037B605D
:101210007B6800224FF457712B4802F08DFA0022B0
:1012200041F20811294802F087FA5C237B6101230F
:10123000BB610023FB6100233B6207F114031946E5
:10124000214802F0CDF84FF480537B610123BB614C
:101250000023FB6103233B6207F1140319461B487B
:1012600002F0BEF84FF400437B610023BB61002312
:10127000FB6107F114031946144802F0B1F84FF46A
:1012800040737B610123BB610023FB6102233B624E
:1012900007F1140319460C4802F0A2F84FF48473C6
:1012A0007B610123BB610023FB6100233B6207F1EB
:1012B00014031946054802F093F800BF2837BD46CD
:1012C00080BD00BF00380240000802400004024018
:1012D00080B582B000AF7860391D4FF6FF730122F0
:1012E000044804F091F900BF7B6818460837BD46F2
:1012F00080BD00BFB404002080B483B000AF0346BB
:10130000FB80094B1B6800225A6200BF064B1B681A
:101310005A6AFB889A42F9D300BF00BF0C37BD461A
:101320005DF8047B704700BF2404002080B588B0BE
:1013300000AF78600B467B8007F10C0300221A6037
:101340005A609A60DA601A617B88FB6001233B6116
:101350000023BB6107F10C031946786802F040F8DE
:1013600000BF2037BD4680BD80B588B000AF786033
:101370000B467B8007F10C0300221A605A609A60CA
:10138000DA601A617B88FB6000233B6101237B618B
:1013900007F10C031946786802F022F800BF2037E5
:1013A000BD4680BD80B500AF124B1B6893F900307D
:1013B000012B1CD14FF480510F48FFF7B7FF0022DB
:1013C0004FF480510C4802F0B7F944F25060FFF737
:1013D00093FF01224FF48051074802F0ADF9142029
:1013E000FFF78AFF4FF480510348FFF7BDFF00BFAE
:1013F00080BD00BF100000200004024080B582B014
:1014000000AF0023FB712820FFF776FF204B1B68FD
:1014100093F90030012B36D14FF480511D4802F072
:1014200073F90346002B20D15020FFF765FF4FF4DE
:101430008051184802F068F90346002B02D00123BE
:10144000FB7112E0FF23FB710FE0114B1B68B3F936
:10145000022092B2013292B212B25A800C4B1B6837
:10146000B3F90230B3F5FA7F08DC4FF48051094834
:1014700002F04AF90346002BE7D100E000BF044B1D
:101480001B6800225A80FB7918460837BD4680BD8C
:10149000100000200004024080B582B000AF3B4B3A
:1014A0001B6893F90030012B6BD10023BB7165E001
:1014B000364B1B68B3F9022092B2013292B212B2DB
:1014C0005A80324B1B68B3F90230B3F5FA7F08DC5F
:1014D0004FF480512E4802F017F90346002BE7D055
:1014E00000E000BF294B1B6800225A802820FFF72C
:1014F00003FF4FF48051264802F006F90346002B03
:101500000ED1BB79C3F10703012202FA03F35BB2E8
:10151000DB435AB297F9073013405BB2FB711CE012
:10152000BB79C3F10703012202FA03F35AB297F918
:10153000073013435BB2FB710FE0144B1B68B3F928
:10154000022092B2013292B212B25A800F4B1B6843
:10155000B3F90230B3F5FA7F08DC4FF480510C4840
:1015600002F0D2F80346002BE7D100E000BF074BA2
:101570001B6800225A80BB790133BB71BB79072BF2
:10158000A6D9FB7918460837BD4680BD100000205B
:101590000004024080B588B000AF4FF00003FB614B
:1015A0004FF00003BB610023FB75FFF7FBFEFFF765
:1015B00025FF0346FB75FFF76FFF0346BB75FFF77B
:1015C0006BFF03467B75FFF767FF03463B75FFF72D
:1015D00063FF0346FB74FFF75FFF03463B823B7DDF
:1015E000FB81BB7DBB81FB8907EE903AF8EE677A01
:1015F000C7ED077ABB8907EE903AF8EE677AC7ED38
:10160000067A2D4B1B6893F90030012B43D1FB89DF
:10161000FE2B09D9284B1B689B8807EE903AF8EE01
:10162000677AC7ED077A09E0234B1B68D7ED077A85
:10163000FCEEE77A17EE902A92B29A80BB89FE2BD5
:1016400009D91D4B1B68DB8807EE903AF8EE677AE4
:10165000C7ED067A09E0184B1B68D7ED067AFCEE59
:10166000E77A17EE902A92B2DA80134B1B68D7ED17
:10167000077AFCEEE77AC7ED017A3A79D2B29A722C
:101680000D4B1B68D7ED067AFCEEE77AC7ED017AC1
:101690003A79D2B2DA724FF4FA7001F08BF9FB8921
:1016A000002B02D1BB89002B01D00123FFE7184694
:1016B0002037BD4680BD00BF1000002080B500AFC0
:1016C000FFF768FF0346002B07D0054B1B68DB7A4A
:1016D00007EE903AF8EE677AFFE7B0EE670A80BD52
:1016E0001000002080B500AFFFF754FF0346002B29
:1016F00007D0054B1B689B7A07EE903AF8EE677AA5
:10170000FFE7B0EE670A80BD1000002080B59CB0F6
:1017100000AF0023FB664FF00003BB664B4B7B66BC
:101720004B4B1B6893F90030012B7CD13B1D0022F1
:101730001A605A609A60DA6000237B600123BB6004
:101740000123FB603B1D1946424801F039FB41482B
:1017500001F098F90A213F4801F099FA0346002B5D
:1017600061D13C4801F01EFBF866394B1B68FA6EEC
:1017700092B25A80FB6E40F6FF72934202D0FB6E2B
:10178000002B04D1324B1B689B88FB6604E0304B76
:101790001B68FA6E92B29A80FB6E07EE903AB8EE32
:1017A000677ADFED2D6AC7EE267A9FED2C7A67EE19
:1017B000877AC7ED187A9FED297AD7ED187A77EEF8
:1017C000677A9FED277A67EE876AD7ED187AF5EE8C
:1017D000C07AF1EE10FA02DDD7ED187A01E0F7EEEB
:1017E000007A86EEA77A87ED177A97ED177ADFED04
:1017F0001D6AC7EE267AC7ED167ADFED1B0A97ED54
:10180000160A04F0BDFAF0EE407A9FED187A67EE02
:10181000877A9FED177A77EE877AC7ED157A0C4BAA
:101820001B687A6D9A600B4801F0FEF9FB6E40F67A
:10183000FF72934202D1FB6E002B01D0012300E026
:10184000002318467037BD4680BD00BF00401C46CF
:10185000240000202002002000F07F453333534055
:1018600000401C4600007A44333333BF00007C4202
:101870000000484280B500AFFFF748FF0346002B49
:1018800007D0054B1B685B8807EE903AF8EE677A45
:10189000FFE7B0EE670A80BD2400002080B500AFEE
:1018A000FFF734FF0346002B05D0044B1B689B68F1
:1018B00007EE903AFFE7B0EE670A80BD24000020F3
:1018C00098B500AF0B4B1C684FF400410A4801F07B
:1018D0001BFF03462370074B1B681B78012B02D1AB
:1018E0004FF07E5301E04FF0000307EE903AB0EE68
:1018F000670A98BD280000200004024080B500AFB0
:1019000001224021024801F017FF00BF80BD00BF47
:101910000008024080B500AF00224FF40071024879
:1019200001F00AFF00BF80BD0008024080B500AF93
:1019300000224FF48071024801F0FEFE00BF80BD1E
:101940000008024080B500AF01224FF40071024848
:1019500001F0F2FE00BF80BD0008024080B500AF7C
:1019600001224FF48071024801F0E6FE00BF80BD05
:101970000008024080B586B002AF0346FB80F888BD
:10198000002300934FF47A635022002100F01AF8EC
:101990000346FB8101220821074801F0CDFE002209
:1019A0001021064801F0C8FE054B1B68FA895A63EE
:1019B00000BF1037BD4680BD000402400008024051
:1019C0009403002090B482B000AF0446084611464C
:1019D0001A462346FB800346BB800B467B8013469A
:1019E0003B80FA88BB88D31A398A3A888A1A03FB63
:1019F00002F27988BB88CB1A92FBF3F39AB23B8848
:101A000013449BB218460837BD4690BC704700008F
:101A10002DE9B04388B004AF00F08AFF00F070F801
:101A2000FFF7B4FB00F05EFD00F088FE00F0B0FEB2
:101A3000FFF716FB00F058FB00F0F4FB00F040FC51
:101A400000F08CFC00F000FD00F0C8F8244802F023
:101A50005FFD244802F0F4FC234802F059FD2348BE
:101A600002F056FD224801F00DF84FF0FF312048FA
:101A700001F00DF90023FB731E4802F049FD00211F
:101A80001D4802F00FFEFFF739FFFFF75BFFFFF77E
:101A900065FFFFF727FE87ED020AFFF70FFE87EDD0
:101AA000010AFFF7E7FE87ED000AB868FEF76CFD54
:101AB000804689467868FEF767FD04460D4638681B
:101AC000FEF762FD02460B46CDE90223CDE9004553
:101AD00042464B46094805F0BDFC00BFD9E700BFB0
:101AE00024040020BC0200204C030020DC03002062
:101AF00020020020040300209403002048AD0008C9
:101B000080B594B000AF07F11C03342200211846C1
:101B100005F00AFE07F1080300221A605A609A6075
:101B2000DA601A6100237B602A4B1B6C294A43F060
:101B300080531364274B1B6C03F080537B607B68DE
:101B400000233B60244B1B6823F44043224A43F4A8
:101B500080431360204B1B6803F440433B603B68A9
:101B60000123FB614FF480333B6202237B634FF41C
:101B70008003BB630823FB634FF4B4733B6402230D
:101B80007B640223BB640223FB6407F11C03184639
:101B900002F068F90346002B01D000F0C1F80F23D2
:101BA000BB600223FB6080233B614FF480537B6169
:101BB0004FF48053BB6107F108030221184601F07E
:101BC000D5FD0346002B01D000F0AAF800BF503726
:101BD000BD4680BD003802400070004080B500AFB7
:101BE000002200211D2001F0D1FB1D2001F0EAFBA5
:101BF000002200211C2001F0C9FB1C2001F0E2FBA7
:101C000000220021322001F0C1FB322001F0DAFB7A
:101C100000BF80BD80B584B000AF78607B681B6872
:101C2000B3F1804F20D1384B1B78012B1CD1FFF72B
:101C300035FEF0EE407AFCEEE77A17EE903AFB8143
:101C4000FFF73EFE87ED020AFB891846FFF792FE7A
:101C5000D7ED027AF5EE407AF1EE10FA02D1FFF7F5
:101C600059FE01E0FFF76EFE7B681B68274A93422E
:101C70002BD1274805F056FC264B1B685A78254B7C
:101C80001B680132D2B25A70224B1B685B78052B5D
:101C900017D1204B1B689A780132D2B29A701D4B33
:101CA0001B6800225A701B4B1B689B78012B0CD1C0
:101CB000184B1B6801221A70164B1B6800229A7081
:101CC00003E0144B1B6800221A707B681B68124AE1
:101CD00093420DD10C4B1B78012B09D10D4B1B6886
:101CE0001B78012B02D1FFF721FE01E0FFF736FE42
:101CF0007B681B68094A934201D100F03BFE00BF9C
:101D00001037BD4680BD00BF6A02002000040040BD
:101D10006CAD00082C000020000C004000200040AA
:101D200080B400AF72B600BF00BFFDE780B483B0DF
:101D300000AF00237B60104B5B6C0F4A43F4804381
:101D400053640D4B5B6C03F480437B607B68002322
:101D50003B60094B1B6C084A43F080531364064BED
:101D60001B6C03F080533B603B6800BF0C37BD46E3
:101D70005DF8047B704700BF0038024080B58EB02C
:101D800000AF78600023FB620023BB620023FB608E
:101D9000334B1B6C324A43F480731364304B1B6C1F
:101DA00003F48073FB60FB6807F1100207F1140372
:101DB0001146184601F0F4FD3B6AFB62FB6A002BFA
:101DC00003D101F0C5FD786304E001F0C1FD0346D5
:101DD0005B007B637B6B234AA2FB03239B0C013BD1
:101DE000BB62214B214A1A601F4B40F2E732DA6096
:101DF0001D4ABB6A53601C4B00221A611A4B002219
:101E00009A60194B00229A61174802F0C9FA0346FA
:101E100087F8333097F83330002B1BD1124802F08B
:101E200077FB034687F8333097F83330002B11D116
:101E30002D2001F0C7FA7B680F2B08D800227968A3
:101E40002D2001F0A3FA0A4A7B68136002E0012307
:101E500087F8333097F8333018463837BD4680BDA1
:101E60000038024083DE1B43700200200020004047
:101E70003400002080B400AF00BFFDE780B400AFA5
:101E800000BFFDE780B400AF00BFFDE780B400AF46
:101E900000BFFDE780B400AF00BFFDE780B400AF36
:101EA00000BFBD465DF8047B704780B400AF00BF43
:101EB000BD465DF8047B704780B400AF00BFBD46EF
:101EC0005DF8047B704780B400AF00BFBD465DF88D
:101ED000047B704780B500AF024802F0ABFC00BF46
:101EE00080BD00BFBC02002080B500AF024802F0F8
:101EF000A1FC00BF80BD00BF0403002080B500AF7F
:101F0000024802F097FC00BF80BD00BF4C030020D8
:101F100080B500AF024802F08DFC00BF80BD00BF5D
:101F20007002002080B500AF024802F083FC00BFC1
:101F300080BD00BFDC03002080B400AF0123184641
:101F4000BD465DF8047B704780B582B000AF786015
:101F5000396005F03BFC034616221A604FF0FF3350
:101F600018460837BD4680BD80B582B000AF7860A6
:101F70004FF0FF317868FFF7E7FF00BFFDE780B55E
:101F800086B000AFF860B9607A6000237B610AE038
:101F9000AFF300800146BB685A1CBA60CAB21A701F
:101FA0007B6901337B617A697B689A42F0DB7B68ED
:101FB00018461837BD4680BD80B586B000AFF860C2
:101FC000B9607A6000237B6109E0BB685A1CBA6083
:101FD0001B781846FFF77CF97B6901337B617A69CE
:101FE0007B689A42F1DB7B6818461837BD4680BD96
:101FF00080B483B000AF78604FF0FF3318460C37E1
:10200000BD465DF8047B704780B483B000AF786054
:1020100039603B684FF400525A60002318460C3771
:10202000BD465DF8047B704780B483B000AF786034
:10203000012318460C37BD465DF8047B704780B419
:1020400085B000AFF860B9607A6000231846143795
:10205000BD465DF8047B704780B586B000AF786000
:10206000144A154BD31A7B617B693B61134B1B6888
:10207000002B02D1114B124A1A60104B1A687B6870
:1020800013443A699A4207D205F0A0FB03460C229A
:102090001A604FF0FF3309E0084B1B68FB60074BE9
:1020A0001A687B681344054A1360FB6818461837A2
:1020B000BD4680BD0000022000040000B8020020E0
:1020C0005006002080B400AF064BD3F88830054A94
:1020D00043F47003C2F8883000BFBD465DF8047B4E
:1020E000704700BF00ED00E080B596B000AF07F18B
:1020F000480300221A605A609A60DA6007F14003D0
:1021000000221A605A6007F1240300221A605A6004
:102110009A60DA601A615A619A613B1D202200219F
:10212000184605F001FB3D4B3D4A1A603B4B2C2203
:102130005A603A4B00229A60384B4EF65F22DA60C2
:10214000364B00221A61354B00225A61334B002274
:102150009A61324802F024F90346002B01D0FFF7C0
:10216000DFFD4FF48053BB6407F1480319462B4849
:1021700002F012FD0346002B01D0FFF7D1FD2748E6
:1021800002F036FA0346002B01D0FFF7C9FD002309
:102190003B6400237B6407F1400319461F4803F0AA
:1021A00001F90346002B01D0FFF7BAFD60237B62E3
:1021B0000023BB620023FB6200237B630023BB631D
:1021C0000023FB6307F124030C221946134802F095
:1021D00021FC0346002B01D0FFF7A2FD00237B600A
:1021E0000023BB600023FB6000233B6100237B6175
:1021F0004FF40053BB6100233B623B1D1946074867
:1022000003F04CF90346002B01D0FFF789FD03488A
:1022100000F032FA00BF5837BD4680BDBC02002036
:102220000000014080B586B000AF07F1080300222E
:102230001A605A609A60DA603B4600221A605A605F
:102240001E4B4FF080421A601C4B42F227325A60FC
:102250001A4B00229A60194B40F2E732DA60174BB2
:1022600000221A61154B80229A61144802F098F8F6
:102270000346002B01D0FFF753FD4FF48053BB60A2
:1022800007F1080319460D4802F086FC0346002BAF
:1022900001D0FFF745FD00233B6000237B603B46F8
:1022A0001946064803F07EF80346002B01D0FFF7DD
:1022B00037FD00BF1837BD4680BD00BF04030020B6
:1022C00080B586B000AF07F1080300221A605A609B
:1022D0009A60DA603B4600221A605A601D4B1E4A23
:1022E0001A601C4B4AF6C7725A601A4B00229A6059
:1022F000184B4EF65F22DA60164B00221A61154B1E
:1023000000229A61134802F04BF80346002B01D0DB
:10231000FFF706FD4FF48053BB6007F10803194631
:102320000C4802F039FC0346002B01D0FFF7F8FC03
:1023300000233B6000237B603B461946054803F0C1
:1023400031F80346002B01D0FFF7EAFC00BF183735
:10235000BD4680BD4C0300200004004080B58EB017
:1023600000AF07F1280300221A605A609A60DA6011
:1023700007F1200300221A605A603B1D00221A60F8
:102380005A609A60DA601A615A619A612C4B2D4A40
:102390001A602B4B59225A60294B00229A60284B15
:1023A00043F69722DA60264B00221A61244B002262
:1023B0009A61234801F0F4FF0346002B01D0FFF798
:1023C000AFFC4FF48053BB6207F1280319461C4849
:1023D00002F0E2FB0346002B01D0FFF7A1FC1848F6
:1023E00002F006F90346002B01D0FFF799FC002309
:1023F0003B6200237B6207F120031946104802F07C
:10240000D1FF0346002B01D0FFF78AFC60237B60DD
:102410000023BB600023FB6000237B613B1D002287
:102420001946074802F0F6FA0346002B01D0FFF7E1
:1024300077FC034800F020F900BF3837BD4680BD67
:10244000940300200008004080B586B000AF07F17B
:10245000080300221A605A609A60DA603B46002244
:102460001A605A601D4B1E4A1A601C4B42F22732FA
:102470005A601A4B00229A60184B40F2E732DA6039
:10248000164B00221A61154B00229A61134801F085
:1024900087FF0346002B01D0FFF742FC4FF4805327
:1024A000BB6007F1080319460C4802F075FB0346B0
:1024B000002B01D0FFF734FC00233B6000237B603E
:1024C0003B461946054802F06DFF0346002B01D03C
:1024D000FFF726FC00BF1837BD4680BDDC03002097
:1024E000000C004080B582B000AF3B4600221A606D
:1024F0005A60154B154A1A60134B00225A60124B52
:1025000000229A60104B4FF6FF72DA600E4B0022E9
:102510009A610D4801F044FF0346002B01D0FFF7FC
:10252000FFFB00233B6000237B603B4619460648C7
:1025300002F038FF0346002B01D0FFF7F1FB00BF8C
:102540000837BD4680BD00BF2404002000100040B5
:1025500080B588B000AF78607B681B68404A9342C2
:1025600016D10023FB613F4B5B6C3E4A43F00103F5
:1025700053643C4B5B6C03F00103FB61FB6900227D
:102580000021182000F002FF182000F01BFF62E07D
:102590007B681B68B3F1804F0ED10023BB61314BC8
:1025A0001B6C304A43F0010313642E4B1B6C03F089
:1025B0000103BB61BB694EE07B681B682A4A9342FA
:1025C0000ED100237B61274B1B6C264A43F002038C
:1025D0001364244B1B6C03F002037B617B693AE0BC
:1025E0007B681B68214A93420ED100233B611D4B3F
:1025F0001B6C1C4A43F0040313641A4B1B6C03F05E
:1026000004033B613B6926E07B681B68184A9342E0
:102610000ED10023FB60134B1B6C124A43F00803DE
:102620001364104B1B6C03F00803FB60FB6812E0A3
:102630007B681B680F4A93420DD10023BB60094B96
:102640001B6C084A43F010031364064B1B6C03F029
:102650001003BB60BB6800BF2037BD4680BD00BF14
:102660000000014000380240000400400008004023
:10267000000C00400010004080B58AB000AF7860C8
:1026800007F1140300221A605A609A60DA601A6136
:102690007B681B68244A93421FD100233B61234B74
:1026A0001B6B224A43F001031363204B1B6B03F0A7
:1026B00001033B613B694FF400637B610223BB6113
:1026C0000023FB6102233B6201237B6207F11403B9
:1026D0001946174800F084FE22E07B681B68154A03
:1026E00093421DD10023FB60104B1B6B0F4A43F03C
:1026F000020313630D4B1B6B03F00203FB60FB68CB
:1027000040237B610223BB610023FB6100233B620A
:1027100002237B6207F114031946074800F060FEAC
:1027200000BF2837BD4680BD000001400038024090
:1027300000000240000800400004024080B500AFE5
:10274000114B124A1A60104B4FF4E1325A600E4B93
:1027500000229A600C4B0022DA600B4B00221A61B7
:10276000094B0C225A61084B00229A61064B002249
:10277000DA61054802F0F8FE0346002B01D0FFF7AE
:10278000CFFA00BF80BD00BF6C04002000100140E4
:1027900080B500AF114B124A1A60104B4FF4E13272
:1027A0005A600E4B00229A600C4B0022DA600B4BF1
:1027B00000221A61094B0C225A61084B00229A61CF
:1027C000064B0022DA61054802F0CEFE0346002BDC
:1027D00001D0FFF7A5FA00BF80BD00BFB404002000
:1027E0000044004080B58CB000AF786007F11C0356
:1027F00000221A605A609A60DA601A617B681B686E
:10280000324A93422DD10023BB61314B5B6C304A7D
:1028100043F0100353642E4B5B6C03F01003BB6159
:10282000BB6900237B612A4B1B6B294A43F00103E0
:102830001363274B1B6B03F001037B617B694FF430
:10284000C063FB6102233B6200237B620323BB6204
:102850000723FB6207F11C0319461E4800F0C0FD68
:1028600030E07B681B681C4A93422BD100233B61FC
:10287000174B1B6C164A43F400331364144B1B6C48
:1028800003F400333B613B690023FB60104B1B6B7F
:102890000F4A43F0010313630D4B1B6B03F001035D
:1028A000FB60FB680C23FB6102233B6200237B621D
:1028B0000323BB620723FB6207F11C03194605488B
:1028C00000F08EFD00BF3037BD4680BD00100140D6
:1028D000003802400000024000440040DFF834D0DD
:1028E000FFF7F0FB0C480D490D4A002302E0D458D5
:1028F000C4500433C4188C42F9D30A4A0A4C00234A
:1029000001E013600432A242FBD304F065FFFFF73D
:102910007FF8704700000220000000200402002021
:10292000E0B10008040200204C060020FEE7000091
:1029300080B500AF0E4B1B680D4A43F40073136063
:102940000B4B1B680A4A43F480631360084B1B68F7
:10295000074A43F480731360032000F00CFD0F203E
:10296000FFF70CFAFFF7E2F90023184680BD00BF1D
:10297000003C024080B400AF064B1B781A46064B61
:102980001B681344044A136000BFBD465DF8047B16
:10299000704700BF38000020FC04002080B400AF66
:1029A000034B1B681846BD465DF8047B704700BFAB
:1029B000FC04002080B584B000AF7860FFF7EEFF24
:1029C000B8607B68FB60FB68B3F1FF3F05D00A4B42
:1029D0001B781A46FB681344FB6000BFFFF7DEFF5D
:1029E0000246BB68D31AFA689A42F7D800BF00BF04
:1029F0001037BD4680BD00BF3800002080B584B0D0
:102A000000AF78600023FB737B68002B01D10123AA
:102A100033E07B681B6C002B09D17868FEF772FBF2
:102A20007B6800225A647B68002283F83C207B6824
:102A30001B6C03F01003002B18D17B681B6C23F474
:102A4000885323F0020343F002027B681A6478681B
:102A500000F0E8FA7B6800225A647B681B6C23F064
:102A6000030343F001027B681A6401E00123FB7356
:102A70007B68002283F83C20FB7B18461037BD465C
:102A800080BD000080B485B000AF78600023BB60DB
:102A90007B6893F83C30012B01D10223B2E07B68C4
:102AA000012283F83C207B681B689B6803F00103CC
:102AB000012B18D07B681B689A687B681B6842F002
:102AC00001029A60524B1B68524AA2FB03239A0CE4
:102AD00013465B001344BB6002E0BB68013BBB6074
:102AE000BB68002BF9D17B681B689B6803F001036E
:102AF000012B7AD17B681B6C23F4E06323F0010384
:102B000043F480727B681A647B681B685B6803F41B
:102B10008063002B07D07B681B6C23F4405343F485
:102B200080527B681A647B681B6C03F48053B3F596
:102B3000805F06D17B685B6C23F006027B685A6479
:102B400002E07B6800225A647B68002283F83C2004
:102B5000314BFB607B681B686FF022021A60FB68D8
:102B60005B6803F01F03002B2AD17B681B682B4A8C
:102B7000934215D07B681B68294A934205D1264BA6
:102B80005B6803F01F03002B0AD07B681B68254A93
:102B9000934236D1204B5B6803F01003002B30D1F9
:102BA0007B681B689B6803F04053002B29D17B682E
:102BB0001B689A687B681B6842F080429A6020E03C
:102BC0007B681B68154A93421BD17B681B689B6816
:102BD00003F04053002B14D17B681B689A687B6814
:102BE0001B6842F080429A600BE07B681B6C43F0EC
:102BF00010027B681A647B685B6C43F001027B689F
:102C00005A64002318461437BD465DF8047B7047AC
:102C10003000002083DE1B430023014000200140E0
:102C2000002101400022014080B483B000AF7860F1
:102C30007B6893F83C30012B01D1022321E07B68B3
:102C4000012283F83C207B681B689A687B681B68BC
:102C500022F001029A607B681B689B6803F0010305
:102C6000002B09D17B681B6C23F4885323F00103EC
:102C700043F001027B681A647B68002283F83C20E1
:102C8000002318460C37BD465DF8047B704780B5BD
:102C900084B000AF786039600023FB607B681B68FC
:102CA0009B6803F48063B3F5806F13D17B681B6866
:102CB0009B6803F48073B3F5807F0BD17B681B6C3A
:102CC00043F020027B681A647B68002283F83C2072
:102CD000012363E0FFF762FEF86021E03B68B3F197
:102CE000FF3F1DD03B68002B07D0FFF757FE024681
:102CF000FB68D31A3A689A4212D27B681B681B6839
:102D000003F00203022B0BD07B681B6C43F0040220
:102D10007B681A647B68002283F83C2003233DE033
:102D20007B681B681B6803F00203022BD6D17B680B
:102D30001B686FF012021A607B681B6C43F4007210
:102D40007B681A647B681B689B6803F04053002B08
:102D500023D17B681B7E002B1FD17B681B68DB6A3D
:102D600003F47003002B06D07B681B689B6803F498
:102D70008063002B11D17B681B6C23F480727B680D
:102D80001A647B681B6C03F48053002B05D17B68AD
:102D90001B6C43F001027B681A640023184610374D
:102DA000BD4680BD80B483B000AF78607B681B688F
:102DB000DB6C18460C37BD465DF8047B704700009D
:102DC00080B485B000AF786039600023BB607B6859
:102DD00093F83C30012B01D1022313E17B680122DF
:102DE00083F83C203B681B68092B25D97B681B684E
:102DF000D9683B681B689BB21A4613465B001344B4
:102E00001E3B072202FA03F3DA437B681B680A4081
:102E1000DA607B681B68D9683B689A683B681B6806
:102E20009BB2184603465B0003441E3B9A407B68F6
:102E30001B680A43DA6022E07B681B6819693B68FB
:102E40001B689BB21A4613465B001344072202FA22
:102E500003F3DA437B681B680A401A617B681B68CE
:102E600019693B689A683B681B689BB21846034621
:102E70005B0003449A407B681B680A431A613B6805
:102E80005B68062B24D87B681B68596B3B685A68C3
:102E900013469B001344053B1F2202FA03F3DA4357
:102EA0007B681B680A405A637B681B68596B3B68E8
:102EB0001B689BB218463B685A6813469B00134434
:102EC000053B00FA03F27B681B680A435A634CE037
:102ED0003B685B680C2B24D87B681B68196B3B68CC
:102EE0005A6813469B001344233B1F2202FA03F344
:102EF000DA437B681B680A401A637B681B68196B9E
:102F00003B681B689BB218463B685A6813469B0097
:102F10001344233B00FA03F27B681B680A431A63DD
:102F200023E07B681B68D96A3B685A6813469B009C
:102F30001344413B1F2202FA03F3DA437B681B6808
:102F40000A40DA627B681B68D96A3B681B689BB2DF
:102F500018463B685A6813469B001344413B00FAED
:102F600003F27B681B680A43DA62294BFB607B68CB
:102F70001B68284A93420FD13B681B68122B0BD168
:102F8000FB685B6823F40002FB685A60FB685B68BF
:102F900043F48002FB685A607B681B681D4A9342B9
:102FA0002BD13B681B681C4A934203D03B681B68CB
:102FB000112B22D1FB685B6823F48002FB685A6006
:102FC000FB685B6843F40002FB685A603B681B685F
:102FD000114A934211D1114B1B68114AA2FB0323E2
:102FE0009A0C13469B0013445B00BB6002E0BB6875
:102FF000013BBB60BB68002BF9D17B68002283F8E2
:103000003C20002318461437BD465DF8047B70470A
:103010000023014000200140120000103000002079
:1030200083DE1B4380B485B000AF7860794BFB60D2
:10303000FB685B6823F44032FB685A60FB685A689F
:103040007B685B681A43FB685A607B681B685A6838
:103050007B681B6822F480725A607B681B68596821
:103060007B681B691A027B681B680A435A607B688D
:103070001B685A687B681B6822F040725A607B6844
:103080001B6859687B689A687B681B680A435A60AA
:103090007B681B689A687B681B6822F400629A60F0
:1030A0007B681B6899687B68DA687B681B680A43E1
:1030B0009A607B689B6A584A934222D07B681B685F
:1030C0009A687B681B6822F070629A607B681B6854
:1030D00099687B689A6A7B681B680A439A607B6878
:1030E0001B689A687B681B6822F040529A607B6874
:1030F0001B6899687B68DA6A7B681B680A439A6078
:103100000FE07B681B689A687B681B6822F070621E
:103110009A607B681B689A687B681B6822F0405243
:103120009A607B681B689A687B681B6822F00202C1
:103130009A607B681B6899687B681B7E5A007B6875
:103140001B680A439A607B6893F82030002B1BD0E1
:103150007B681B685A687B681B6842F400625A608F
:103160007B681B685A687B681B6822F460425A605F
:103170007B681B6859687B685B6A013B5A037B6804
:103180001B680A435A6007E07B681B685A687B68C3
:103190001B6822F400625A607B681B68DA6A7B68ED
:1031A0001B6822F47002DA627B681B68D96A7B684C
:1031B000DB69013B1A057B681B680A43DA627B689E
:1031C0001B689A687B681B6822F400729A607B68AF
:1031D0001B6899687B6893F830305A027B681B68DB
:1031E0000A439A607B681B689A687B681B6822F4B4
:1031F00080629A607B681B6899687B685B699A0249
:103200007B681B680A439A6000BF1437BD465DF8AF
:10321000047B7047002301400100000F80B485B09B
:1032200000AF78607B6803F00703FB600C4BDB6842
:10323000BB60BA684FF6FF031340BB60FB681A021D
:10324000BB68134343F0BF6343F40033BB60044ADD
:10325000BB68D36000BF1437BD465DF8047B704780
:1032600000ED00E080B400AF044BDB681B0A03F004
:1032700007031846BD465DF8047B704700ED00E08B
:1032800080B483B000AF0346FB7197F90730002B81
:103290000BDBFB7903F01F02074997F907305B0945
:1032A000012000FA02F241F8232000BF0C37BD468E
:1032B0005DF8047B704700BF00E100E080B483B09C
:1032C00000AF03463960FB7197F90730002B0ADB2A
:1032D0003B68DAB20C4997F907301201D2B20B44BD
:1032E00083F800230AE03B68DAB20849FB7903F06F
:1032F0000F03043B1201D2B20B441A7600BF0C3705
:10330000BD465DF8047B704700E100E000ED00E0A1
:1033100080B489B000AFF860B9607A60FB6803F0F0
:103320000703FB61FB69C3F10703042B28BF0423D8
:10333000BB61FB690433062B02D9FB69033B00E048
:1033400000237B614FF0FF32BB6902FA03F3DA43DB
:10335000BB681A407B699A404FF0FF317B6901FAE4
:1033600003F3D9437B680B40134318462437BD460B
:103370005DF8047B704780B582B000AF78607868F4
:10338000FFF74CFF00BF0837BD4680BD80B586B053
:1033900000AF0346B9607A60FB7300237B61FFF7DF
:1033A00061FF78617A68B9687869FFF7B1FF024612
:1033B00097F90F3011461846FFF780FF00BF183706
:1033C000BD4680BD80B582B000AF0346FB7197F962
:1033D00007301846FFF754FF00BF0837BD4680BDD1
:1033E00080B489B000AF7860396000237B6100232E
:1033F0003B610023BB610023FB6165E10122FB69A6
:1034000002FA03F37B613B681B687A6913403B61F6
:103410003A697B699A4240F054813B685B6803F0EB
:103420000303012B05D03B685B6803F00303022B09
:1034300030D17B689B68BB61FB695B00032202FAA9
:1034400003F3DB43BA691340BB613B68DA68FB698D
:103450005B0002FA03F3BA691343BB617B68BA6984
:103460009A607B685B68BB610122FB6902FA03F327
:10347000DB43BA691340BB613B685B681B0903F01F
:103480000102FB6902FA03F3BA691343BB617B686B
:10349000BA695A603B685B6803F00303032B17D0DB
:1034A0007B68DB68BB61FB695B00032202FA03F304
:1034B000DB43BA691340BB613B689A68FB695B00F8
:1034C00002FA03F3BA691343BB617B68BA69DA6035
:1034D0003B685B6803F00303022B23D1FB69DA0826
:1034E0007B68083253F82230BB61FB6903F00703A5
:1034F0009B000F2202FA03F3DB43BA691340BB615E
:103500003B681A69FB6903F007039B0002FA03F3A7
:10351000BA691343BB61FB69DA087B680832B96991
:1035200043F822107B681B68BB61FB695B000322C8
:1035300002FA03F3DB43BA691340BB613B685B6883
:1035400003F00302FB695B0002FA03F3BA69134359
:10355000BB617B68BA691A603B685B6803F44033FF
:10356000002B00F0AE800023FB605D4B5B6C5C4A7F
:1035700043F4804353645A4B5B6C03F48043FB6019
:10358000FB68584AFB699B08023352F82330BB6141
:10359000FB6903F003039B000F2202FA03F3DB43F2
:1035A000BA691340BB617B684F4A934225D07B6860
:1035B0004E4A93421FD07B684D4A934219D07B6894
:1035C0004C4A934213D07B684B4A93420DD07B68A0
:1035D0004A4A934207D07B68494A934201D1062365
:1035E0000CE007230AE0052308E0042306E0032398
:1035F00004E0022302E0012300E00023FA6902F064
:10360000030292009340BA691343BB613549FB69D9
:103610009B080233BA6941F823203A4B9B68BB618F
:103620003B69DB43BA691340BB613B685B6803F4E9
:103630008013002B03D0BA693B691343BB61314A45
:10364000BB6993602F4BDB68BB613B69DB43BA69A5
:103650001340BB613B685B6803F40013002B03D08D
:10366000BA693B691343BB61264ABB69D360254BEA
:103670005B68BB613B69DB43BA691340BB613B6874
:103680005B6803F40033002B03D0BA693B69134332
:10369000BB611C4ABB6953601A4B1B68BB613B6929
:1036A000DB43BA691340BB613B685B6803F480335A
:1036B000002B03D0BA693B691343BB61114ABB6954
:1036C0001360FB690133FB61FB690F2B7FF696AE3C
:1036D00000BF00BF2437BD465DF8047B704700BFC4
:1036E000003802400038014000000240000402405F
:1036F00000080240000C024000100240001402408A
:1037000000180240003C014080B485B000AF7860F2
:103710000B467B807B681A697B881340002B02D0A4
:103720000123FB7301E00023FB73FB7B1846143776
:10373000BD465DF8047B704780B483B000AF78600D
:103740000B467B8013467B707B78002B03D07A88F6
:103750007B689A6103E07B881A047B689A6100BFEA
:103760000C37BD465DF8047B7047000080B584B01F
:1037700000AF786039607B68002B01D10123CCE079
:10378000684B1B6803F00F033A689A420CD9654BEB
:103790003A68D2B21A70634B1B6803F00F033A68A1
:1037A0009A4201D00123B8E07B681B6803F0020352
:1037B000002B20D07B681B6803F00403002B05D08E
:1037C000594B9B68584A43F4E05393607B681B68ED
:1037D00003F00803002B05D0534B9B68524A43F477
:1037E00060439360504B9B6823F0F0027B689B68BA
:1037F0004D4913438B607B681B6803F00103002B6A
:1038000044D07B685B68012B07D1474B1B6803F4EE
:103810000033002B19D101237FE07B685B68022B0A
:1038200003D07B685B68032B07D13F4B1B6803F019
:103830000073002B09D101236FE03B4B1B6803F0A1
:103840000203002B01D1012367E0374B9B6823F073
:1038500003027B685B68344913438B60FFF79EF873
:10386000F8600AE0FFF79AF80246FB68D31A41F2C3
:103870008832934201D903234FE02B4B9B6803F01E
:103880000C027B685B689B009A42EBD1254B1B685E
:1038900003F00F033A689A420CD2224B3A68D2B234
:1038A0001A70204B1B6803F00F033A689A4201D04C
:1038B000012332E07B681B6803F00403002B08D06F
:1038C000194B9B6823F4E0527B68DB68164913436D
:1038D0008B607B681B6803F00803002B09D0124B38
:1038E0009B6823F460427B681B69DB000E4913432D
:1038F0008B6000F087F802460B4B9B681B0903F0B6
:103900000F030A49CB5C22FA03F3094A1360094BFF
:103910001B681846FEF732FA002318461037BD46DA
:1039200080BD00BF003C02400038024078AD000876
:10393000300000203400002080B400AF034B1B682F
:103940001846BD465DF8047B704700BF300000207C
:1039500080B500AFFFF7F0FF0246054B9B689B0A5E
:1039600003F007030349CB5C22FA03F3184680BD3A
:103970000038024088AD000880B500AFFFF7DCFFDB
:103980000246054B9B685B0B03F007030349CB5CC6
:1039900022FA03F3184680BD0038024088AD0008C3
:1039A00080B483B000AF786039607B680F221A6002
:1039B000124B9B6803F003027B685A600F4B9B68B5
:1039C00003F0F0027B689A600C4B9B6803F4E052B2
:1039D0007B68DA60094B9B68DB0803F4E0527B6884
:1039E0001A61074B1B6803F00F023B681A6000BFA7
:1039F0000C37BD465DF8047B704700BF00380240BD
:103A0000003C02402DE9B04FAEB000AF0023C7F834
:103A1000AC300023C7F8B4300023C7F8A830002327
:103A2000C7F8A4300023C7F8B030CB4B9B6803F035
:103A30000C030C2B00F2068201A252F823F000BF07
:103A4000753A0008453E0008453E0008453E00081E
:103A50007D3A0008453E0008453E0008453E000806
:103A6000853A0008453E0008453E0008453E0008EE
:103A7000753C0008B94BC7F8B030E7E1B84BC7F860
:103A8000B030E3E1B44B5B6803F03F03C7F8AC3000
:103A9000B14B5B6803F48003002B71D0AE4B5B68C5
:103AA0009B090022C7F89830C7F89C20D7F89830B7
:103AB000C3F30803C7F890300023C7F89430D7E960
:103AC000244522462B464FF000004FF000015901DB
:103AD00041EAD261500102460B462146511A39642F
:103AE000294663EB01037B644FF000024FF00003B3
:103AF000D7E9108949468B01414643EA9163414623
:103B00008A014146511AB963494663EB0103FB63DD
:103B10004FF000024FF00003D7E90E894946CB0071
:103B2000414643EA51734146CA00104619460346CE
:103B300022469B183B632B460A4642EB03037B63FA
:103B40004FF000024FF00003D7E90C4529464B0225
:103B5000214643EAD15321464A0210461946D7F876
:103B6000AC300022C7F88830C7F88C20D7E9222370
:103B7000FDF7AAF802460B461346C7F8B43067E0D3
:103B8000754B5B689B090022C7F88030C7F884201A
:103B9000D7F88030C3F30803BB670023FB67D7E97E
:103BA0001E4522462B464FF000004FF00001590100
:103BB00041EAD261500102460B462146511AB962D0
:103BC000294663EB0103FB624FF000024FF0000354
:103BD000D7E90A8949468B01414643EA9163414648
:103BE0008A014146B2EB010A494663EB010B4FF0F3
:103BF00000024FF000034FEACB0343EA5A734FEA47
:103C0000CA0292469B4623461AEB03033B622B46AD
:103C10004BEB03037B624FF000024FF00003D7E948
:103C2000084529468B02214643EA915321468A02E0
:103C300010461946D7F8AC3000223B677A67D7E9BF
:103C40001C23FDF741F802460B461346C7F8B43073
:103C5000414B5B681B0C03F0030301335B00C7F8A7
:103C6000A830D7F8B420D7F8A830B2FBF3F3C7F8E0
:103C7000B030EBE0384B5B6803F03F03C7F8AC3083
:103C8000354B5B6803F48003002B6BD0324B5B68D1
:103C90009B090022BB66FA66BB6EC3F308033B6652
:103CA00000237B66D7E9184522462B464FF00000DB
:103CB0004FF00001590141EAD261500102460B4622
:103CC0002146511AB961294663EB0103FB614FF0AC
:103CD00000024FF00003D7E906AB59468B0151466D
:103CE00043EA916351468A015146B2EB01085946B5
:103CF00063EB01094FF000024FF000034FEAC903E4
:103D000043EA58734FEAC80290469946234618EB97
:103D100003033B612B4649EB03037B614FF0000239
:103D20004FF00003D7E9044529464B02214643EAF8
:103D3000D15321464A0210461946D7F8AC3000222A
:103D4000BB65FA65D7E91623FCF7BEFF02460B46B2
:103D50001346C7F8B43065E0003802400024F40090
:103D600000127A003D4B5B689B0900221846114601
:103D7000C0F308033B6500237B65D7E914894246FD
:103D80004B464FF000004FF00001590141EAD2616B
:103D9000500102460B464146511AB960494663EB51
:103DA0000103FB604FF000024FF00003D7E902ABC4
:103DB00059468B01514643EA916351468A01514667
:103DC000541A594663EB01054FF000024FF000030F
:103DD000EB0043EA5473E20014461D464346E318E1
:103DE0003B604B4645EB03037B604FF000024FF016
:103DF0000003D7E9004529468B02214643EA915347
:103E000021468A0210461946D7F8AC300022BB641E
:103E1000FA64D7E91223FCF757FF02460B46134614
:103E2000C7F8B4300D4B5B681B0F03F00703C7F8EE
:103E3000A430D7F8B420D7F8A430B2FBF3F3C7F816
:103E4000B03003E0064BC7F8B03000BFD7F8B03051
:103E50001846B837BD46BDE8B08F00BF00380240F5
:103E60000024F40080B586B000AF78607B68002B3A
:103E700001D101238DE27B681B6803F00103002B55
:103E800000F08380944B9B6803F00C03042B19D043
:103E9000914B9B6803F00C03082B06D18E4B5B689B
:103EA00003F48003B3F5800F0CD08B4B9B6803F0B9
:103EB0000C030C2B12D1884B5B6803F48003B3F521
:103EC000800F0BD1844B1B6803F40033002B5BD0B5
:103ED0007B685B68002B57D101235AE27B685B68E3
:103EE000B3F5803F06D17C4B1B687B4A43F480339B
:103EF00013601DE07B685B68B3F5A02F0CD1764B97
:103F00001B68754A43F480231360734B1B68724A25
:103F100043F4803313600BE06F4B1B686E4A23F44D
:103F2000803313606C4B1B686B4A23F4802313604F
:103F30007B685B68002B13D0FEF730FD386108E02A
:103F4000FEF72CFD02463B69D31A642B01D90323EB
:103F50001FE2614B1B6803F40033002BF0D014E028
:103F6000FEF71CFD386108E0FEF718FD02463B69CC
:103F7000D31A642B01D903230BE2574B1B6803F4BC
:103F80000033002BF0D100E000BF7B681B6803F01A
:103F90000203002B6FD0504B9B6803F00C03002BE7
:103FA00017D04D4B9B6803F00C03082B05D14A4BEF
:103FB0005B6803F48003002B0BD0474B9B6803F036
:103FC0000C030C2B1CD1444B5B6803F48003002BC7
:103FD00016D1414B1B6803F00203002B05D07B6810
:103FE000DB68012B01D00123D3E13B4B1B6823F09D
:103FF000F8027B681B69DB00374913430B603AE02A
:104000007B68DB68002B20D0344B01221A60FEF75E
:10401000C5FC386108E0FEF7C1FC02463B69D31AD3
:10402000022B01D90323B4E12B4B1B6803F00203DD
:10403000002BF0D0284B1B6823F0F8027B681B692B
:10404000DB00254913430B6015E0244B00221A6066
:10405000FEF7A4FC386108E0FEF7A0FC02463B69CD
:10406000D31A022B01D9032393E11B4B1B6803F0E6
:104070000203002BF0D17B681B6803F00803002BC0
:1040800036D07B685B69002B16D0154B01221A6075
:10409000FEF784FC386108E0FEF780FC02463B69CD
:1040A000D31A022B01D9032373E10B4B5B6F03F08F
:1040B0000203002BF0D01BE0094B00221A60FEF730
:1040C0006DFC38610EE0FEF769FC02463B69D31ACD
:1040D000022B07D903235CE100380240000047426D
:1040E000800E47428A4B5B6F03F00203002BEAD13C
:1040F0007B681B6803F00403002B00F0978000230B
:10410000FB75834B1B6C03F08053002B0FD10023F6
:10411000BB607F4B1B6C7E4A43F0805313647C4B27
:104120001B6C03F08053BB60BB680123FB75794BAC
:104130001B6803F48073002B18D1764B1B68754AFB
:1041400043F480731360FEF729FC386108E0FEF742
:1041500025FC02463B69D31A022B01D9032318E13F
:104160006C4B1B6803F48073002BF0D07B689B685A
:10417000012B06D1664B1B6F654A43F001031367A1
:104180001CE07B689B68052B0CD1614B1B6F604A60
:1041900043F0040313675E4B1B6F5D4A43F001035A
:1041A00013670BE05A4B1B6F594A23F00103136747
:1041B000574B1B6F564A23F0040313677B689B68B9
:1041C000002B15D0FEF7EAFB38610AE0FEF7E6FBAC
:1041D00002463B69D31A41F28832934201D9032344
:1041E000D7E04B4B1B6F03F00203002BEED014E023
:1041F000FEF7D4FB38610AE0FEF7D0FB02463B69CC
:10420000D31A41F28832934201D90323C1E0404BD3
:104210001B6F03F00203002BEED1FB7D012B05D1B8
:104220003B4B1B6C3A4A23F0805313647B689B69B9
:10423000002B00F0AD80364B9B6803F00C03082B7D
:1042400060D07B689B69022B45D1334B00221A60FA
:10425000FEF7A4FB386108E0FEF7A0FB02463B69CD
:10426000D31A022B01D9032393E0294B1B6803F0D7
:104270000073002BF0D17B68DA697B681B6A1A43F4
:104280007B685B6A9B011A437B689B6A5B08013B06
:104290001B041A437B68DB6A1B061A437B681B6B93
:1042A0001B071B4913434B601B4B01221A60FEF78F
:1042B00075FB386108E0FEF771FB02463B69D31AD3
:1042C000022B01D9032364E0114B1B6803F0007338
:1042D000002BF0D05CE0104B00221A60FEF75EFB72
:1042E000386108E0FEF75AFB02463B69D31A022BFD
:1042F00001D903234DE0064B1B6803F00073002B2C
:10430000F0D145E07B689B69012B07D1012340E098
:104310000038024000700040600047421F4B5B685D
:10432000FB607B689B69012B30D0FB6803F4800243
:104330007B68DB699A4229D1FB6803F03F027B6806
:104340001B6A9A4222D1FA6847F6C07313407A6812
:10435000526A9201934219D1FB6803F440327B68A0
:104360009B6A5B08013B1B049A420FD1FB6803F078
:1043700070627B68DB6A1B069A4207D1FB6803F018
:10438000E0427B681B6B1B079A4201D0012300E0CF
:10439000002318461837BD4680BD00BF00380240D4
:1043A00080B582B000AF78607B68002B01D101231B
:1043B00041E07B6893F83D30DBB2002B06D17B688F
:1043C000002283F83C207868FEF7C2F87B6802225E
:1043D00083F83D207B681A687B68043319461046D1
:1043E00000F0CAFC7B68012283F846207B6801222A
:1043F00083F83E207B68012283F83F207B680122FE
:1044000083F840207B68012283F841207B680122E9
:1044100083F842207B68012283F843207B680122D5
:1044200083F844207B68012283F845207B680122C1
:1044300083F83D20002318460837BD4680BD0000A4
:1044400080B485B000AF78607B6893F83D30DBB214
:10445000012B01D0012346E07B68022283F83D2036
:104460007B681B68234A934222D07B681B68B3F1A8
:10447000804F1DD07B681B681F4A934218D07B6811
:104480001B681E4A934213D07B681B681C4A9342E8
:104490000ED07B681B681B4A934209D07B681B685F
:1044A000194A934204D07B681B68184A934211D181
:1044B0007B681B689B6803F00703FB60FB68062BA7
:1044C00010D07B681B681A687B681B6842F0010289
:1044D0001A6007E07B681B681A687B681B6842F0FB
:1044E00001021A60002318461437BD465DF8047BAC
:1044F000704700BF00000140000400400008004079
:10450000000C004000040140004001400018004041
:1045100080B485B000AF78607B6893F83D30DBB243
:10452000012B01D001234EE07B68022283F83D205D
:104530007B681B68DA687B681B6842F00102DA60FE
:104540007B681B68234A934222D07B681B68B3F1C7
:10455000804F1DD07B681B681F4A934218D07B6830
:104560001B681E4A934213D07B681B681C4A934207
:104570000ED07B681B681B4A934209D07B681B687E
:10458000194A934204D07B681B68184A934211D1A0
:104590007B681B689B6803F00703FB60FB68062BC6
:1045A00010D07B681B681A687B681B6842F00102A8
:1045B0001A6007E07B681B681A687B681B6842F01A
:1045C00001021A60002318461437BD465DF8047BCB
:1045D000704700BF00000140000400400008004098
:1045E000000C004000040140004001400018004061
:1045F00080B582B000AF78607B68002B01D10123C9
:1046000041E07B6893F83D30DBB2002B06D17B683C
:10461000002283F83C20786800F039F87B68022299
:1046200083F83D207B681A687B680433194610467E
:1046300000F0A2FB7B68012283F846207B68012200
:1046400083F83E207B68012283F83F207B680122AB
:1046500083F840207B68012283F841207B68012297
:1046600083F842207B68012283F843207B68012283
:1046700083F844207B68012283F845207B6801226F
:1046800083F83D20002318460837BD4680BD80B41E
:1046900083B000AF786000BF0C37BD465DF8047B87
:1046A0007047000080B584B000AF786039603B6827
:1046B000002B09D17B6893F83E30DBB2012B14BF8D
:1046C00001230023DBB222E03B68042B09D17B6885
:1046D00093F83F30DBB2012B14BF01230023DBB280
:1046E00015E03B68082B09D17B6893F84030DBB2BA
:1046F000012B14BF01230023DBB208E07B6893F891
:104700004130DBB2012B14BF01230023DBB2002BAD
:1047100001D001237CE03B68002B04D17B6802229E
:1047200083F83E2013E03B68042B04D17B6802220F
:1047300083F83F200BE03B68082B04D17B68022202
:1047400083F8402003E07B68022283F841207B68E5
:104750001B6801223968184600F0FEFD7B681B6863
:104760002D4A934204D07B681B682C4A934201D1A6
:10477000012300E00023002B07D07B681B685A6CE4
:104780007B681B6842F400425A647B681B68224ABB
:10479000934222D07B681B68B3F1804F1DD07B68A9
:1047A0001B681F4A934218D07B681B681D4A9342BE
:1047B00013D07B681B681C4A93420ED07B681B6831
:1047C000164A934209D07B681B68184A934204D06A
:1047D0007B681B68164A934211D17B681B689B68F3
:1047E00003F00703FB60FB68062B10D07B681B6897
:1047F0001A687B681B6842F001021A6007E07B6858
:104800001B681A687B681B6842F001021A6000236B
:1048100018461037BD4680BD00000140000401402D
:104820000004004000080040000C0040004001402F
:104830000018004080B584B000AF78607B681B68CA
:10484000DB68FB607B681B681B69BB60BB6803F0AF
:104850000203002B20D0FB6803F00203002B1BD0C7
:104860007B681B686FF002021A617B6801221A776D
:104870007B681B689B6903F00303002B03D07868F7
:1048800000F05BFA05E0786800F04DFA786800F017
:104890005EFA7B6800221A77BB6803F00403002BE2
:1048A00020D0FB6803F00403002B1BD07B681B683F
:1048B0006FF004021A617B6802221A777B681B681A
:1048C0009B6903F44073002B03D0786800F035FA3D
:1048D00005E0786800F027FA786800F038FA7B681D
:1048E00000221A77BB6803F00803002B20D0FB6876
:1048F00003F00803002B1BD07B681B686FF00802D5
:104900001A617B6804221A777B681B68DB6903F0F5
:104910000303002B03D0786800F00FFA05E07868F5
:1049200000F001FA786800F012FA7B6800221A772A
:10493000BB6803F01003002B20D0FB6803F01003CA
:10494000002B1BD07B681B686FF010021A617B681C
:1049500008221A777B681B68DB6903F44073002B1D
:1049600003D0786800F0E9F905E0786800F0DBF939
:10497000786800F0ECF97B6800221A77BB6803F0D6
:104980000103002B0CD0FB6803F00103002B07D0C0
:104990007B681B686FF001021A617868FDF73AF9CD
:1049A000BB6803F08003002B0CD0FB6803F080038E
:1049B000002B07D07B681B686FF080021A61786853
:1049C00000F0C8FDBB6803F04003002B0CD0FB686F
:1049D00003F04003002B07D07B681B686FF0400298
:1049E0001A61786800F0BDF9BB6803F02003002B62
:1049F0000CD0FB6803F02003002B07D07B681B68FA
:104A00006FF020021A61786800F09AFD00BF10373D
:104A1000BD4680BD80B586B000AFF860B9607A60F1
:104A20000023FB75FB6893F83C30012B01D1022376
:104A3000AEE0FB68012283F83C207B680C2B00F27F
:104A40009F8001A252F823F07D4A0008814B0008A4
:104A5000814B0008814B0008BD4A0008814B0008CB
:104A6000814B0008814B0008FF4A0008814B000879
:104A7000814B0008814B00083F4B0008FB681B6816
:104A8000B968184600F01EFAFB681B689A69FB6853
:104A90001B6842F008029A61FB681B689A69FB6810
:104AA0001B6822F004029A61FB681B689969BB6865
:104AB0001A69FB681B680A439A6164E0FB681B681B
:104AC000B968184600F06EFAFB681B689A69FB68C3
:104AD0001B6842F400629A61FB681B689A69FB6874
:104AE0001B6822F480629A61FB681B689969BB6845
:104AF0001B691A02FB681B680A439A6143E0FB6862
:104B00001B68B968184600F0C3FAFB681B68DA69CD
:104B1000FB681B6842F00802DA61FB681B68DA690F
:104B2000FB681B6822F00402DA61FB681B68D96924
:104B3000BB681A69FB681B680A43DA6123E0FB68FB
:104B40001B68B968184600F017FBFB681B68DA6938
:104B5000FB681B6842F40062DA61FB681B68DA6973
:104B6000FB681B6822F48062DA61FB681B68D96904
:104B7000BB681B691A02FB681B680A43DA6102E022
:104B80000123FB7500BFFB68002283F83C20FB7DFE
:104B900018461837BD4680BD80B584B000AF786038
:104BA00039600023FB737B6893F83C30012B01D103
:104BB0000223B4E07B68012283F83C207B68022258
:104BC00083F83D207B681B689B68BB60BB6823F053
:104BD0007703BB60BB6823F47F43BB607B681B68C3
:104BE000BA689A603B681B68B3F5005F3ED0B3F5C6
:104BF000005F00F28780B3F5805F00F08680B3F538
:104C0000805F7FD8702B1AD0702B7BD8602B50D050
:104C1000602B77D8502B3CD0502B73D8402B58D0DA
:104C2000402B6FD8302B64D0302B6BD8202B60D02A
:104C3000202B67D8002B5CD0102B5AD062E07B6809
:104C400018683B6899683B685A683B68DB6800F005
:104C500063FB7B681B689B68BB60BB6843F07703A2
:104C6000BB607B681B68BA689A604FE07B68186815
:104C70003B6899683B685A683B68DB6800F04CFB0E
:104C80007B681B689A687B681B6842F480429A6064
:104C90003CE07B6818683B6859683B68DB681A46EB
:104CA00000F0C0FA7B681B685021184600F019FB21
:104CB0002CE07B6818683B6859683B68DB681A46DB
:104CC00000F0DFFA7B681B686021184600F009FBE2
:104CD0001CE07B6818683B6859683B68DB681A46CB
:104CE00000F0A0FA7B681B684021184600F0F9FA32
:104CF0000CE07B681A683B681B681946104600F098
:104D0000F0FA03E00123FB7300E000BF7B6801229F
:104D100083F83D207B68002283F83C20FB7B18460B
:104D20001037BD4680BD80B483B000AF786000BF4F
:104D30000C37BD465DF8047B704780B483B000AF8C
:104D4000786000BF0C37BD465DF8047B704780B4C7
:104D500083B000AF786000BF0C37BD465DF8047BC0
:104D6000704780B483B000AF786000BF0C37BD4699
:104D70005DF8047B7047000080B485B000AF7860B8
:104D800039607B681B68FB607B68434A934213D0A1
:104D90007B68B3F1804F0FD07B68404A93420BD0C1
:104DA0007B683F4A934207D07B683E4A934203D0D8
:104DB0007B683D4A934208D1FB6823F07003FB6097
:104DC0003B685B68FA681343FB607B68324A934236
:104DD0002BD07B68B3F1804F27D07B682F4A93425A
:104DE00023D07B682E4A93421FD07B682D4A934282
:104DF0001BD07B682C4A934217D07B682B4A934286
:104E000013D07B682A4A93420FD07B68294A934289
:104E10000BD07B68284A934207D07B68274A93428D
:104E200003D07B68264A934208D1FB6823F4407381
:104E3000FB603B68DB68FA681343FB60FB6823F0A8
:104E400080023B685B691343FB603B689A687B6840
:104E5000DA623B681A687B689A627B680E4A934202
:104E600003D07B68104A934203D13B681A697B6880
:104E70001A637B681B6843F004027B681A607B68D6
:104E800001225A617B68FA681A6000BF1437BD4678
:104E90005DF8047B704700BF000001400004004043
:104EA00000080040000C00400004014000400140A8
:104EB000004401400048014000180040001C004030
:104EC0000020004080B487B000AF786039607B6814
:104ED0001B6A7B617B681B6A23F001027B681A6294
:104EE0007B685B683B617B689B69FB60FB6823F0C8
:104EF0007003FB60FB6823F00303FB603B681B68E7
:104F0000FA681343FB607B6923F002037B613B6813
:104F10009B687A6913437B617B68204A934203D084
:104F20007B681F4A93420CD17B6923F008037B61A5
:104F30003B68DB687A6913437B617B6923F0040378
:104F40007B617B68154A934203D07B68144A934285
:104F500011D13B6923F480733B613B6923F40073F7
:104F60003B613B685B693A6913433B613B689B6902
:104F70003A6913433B617B683A695A607B68FA6817
:104F80009A613B685A687B685A637B687A691A62DF
:104F900000BF1C37BD465DF8047B70470000014030
:104FA0000004014080B487B000AF786039607B684E
:104FB0001B6A7B617B681B6A23F010027B681A62A4
:104FC0007B685B683B617B689B69FB60FB6823F4E3
:104FD000E043FB60FB6823F44073FB603B681B68A5
:104FE0001B02FA681343FB607B6923F020037B619B
:104FF0003B689B681B017A6913437B617B68224A8B
:10500000934203D07B68214A93420DD17B6923F000
:1050100080037B613B68DB681B017A6913437B611A
:105020007B6923F040037B617B68174A934203D07E
:105030007B68164A934213D13B6923F480633B613A
:105040003B6923F400633B613B685B699B003A6901
:1050500013433B613B689B699B003A6913433B6187
:105060007B683A695A607B68FA689A613B685A685B
:105070007B689A637B687A691A6200BF1C37BD46F9
:105080005DF8047B704700BF000001400004014050
:1050900080B487B000AF786039607B681B6A7B6141
:1050A0007B681B6A23F480727B681A627B685B688A
:1050B0003B617B68DB69FB60FB6823F07003FB608E
:1050C000FB6823F00303FB603B681B68FA6813432B
:1050D000FB607B6923F400737B613B689B681B0268
:1050E0007A6913437B617B68214A934203D07B68D2
:1050F000204A93420DD17B6923F400637B613B68B6
:10510000DB681B027A6913437B617B6923F480634C
:105110007B617B68164A934203D07B68154A9342B1
:1051200013D13B6923F480533B613B6923F4005363
:105130003B613B685B691B013A6913433B613B6818
:105140009B691B013A6913433B617B683A695A606A
:105150007B68FA68DA613B685A687B68DA637B6867
:105160007A691A6200BF1C37BD465DF8047B704740
:10517000000001400004014080B487B000AF7860B7
:1051800039607B681B6A3B617B681B6A23F4805231
:105190007B681A627B685B687B617B68DB69FB60AC
:1051A000FB6823F4E043FB60FB6823F44073FB607F
:1051B0003B681B681B02FA681343FB603B6923F4DE
:1051C00000533B613B689B681B033A6913433B6197
:1051D0007B68124A934203D07B68114A934209D1FB
:1051E0007B6923F480437B613B685B699B017A693F
:1051F00013437B617B687A695A607B68FA68DA617D
:105200003B685A687B681A647B683A691A6200BF17
:105210001C37BD465DF8047B704700BF00000140AD
:105220000004014080B487B000AFF860B9607A60D4
:10523000FB681B6A7B61FB681B6A23F00102FB6849
:105240001A62FB689B693B613B6923F0F0033B6199
:105250007B681B013A6913433B617B6923F00A03B6
:105260007B617A69BB6813437B61FB683A699A6129
:10527000FB687A691A6200BF1C37BD465DF8047B83
:10528000704780B487B000AFF860B9607A60FB689F
:105290001B6A7B61FB681B6A23F01002FB681A62C1
:1052A000FB689B693B613B6923F470433B617B680E
:1052B0001B033A6913433B617B6923F0A0037B61C5
:1052C000BB681B017A6913437B61FB683A699A6189
:1052D000FB687A691A6200BF1C37BD465DF8047B23
:1052E000704780B485B000AF786039607B689B6898
:1052F000FB60FB6823F07003FB603A68FB681343B4
:1053000043F00703FB607B68FA689A6000BF1437BC
:10531000BD465DF8047B704780B487B000AFF8608D
:10532000B9607A603B60FB689B687B617B6923F4B2
:105330007F437B613B681A027B681A43BB68134357
:105340007A6913437B61FB687A699A6000BF1C37F6
:10535000BD465DF8047B704780B487B000AFF8604D
:10536000B9607A60BB6803F01F03012202FA03F3FD
:105370007B61FB681A6A7B69DB431A40FB681A622F
:10538000FB681A6ABB6803F01F03796801FA03F32C
:105390001A43FB681A6200BF1C37BD465DF8047BE8
:1053A0007047000080B485B000AF786039607B68DA
:1053B00093F83C30012B01D102235AE07B68012293
:1053C00083F83C207B68022283F83D207B681B68C1
:1053D0005B68FB607B681B689B68BB60FB6823F0B5
:1053E0007003FB603B681B68FA681343FB607B68D3
:1053F0001B68FA685A607B681B68214A934222D076
:105400007B681B68B3F1804F1DD07B681B681D4A09
:10541000934218D07B681B681B4A934213D07B6869
:105420001B681A4A93420ED07B681B68184A934245
:1054300009D07B681B68174A934204D07B681B68BD
:10544000154A93420CD1BB6823F08003BB603B68D4
:105450005B68BA681343BB607B681B68BA689A6074
:105460007B68012283F83D207B68002283F83C2082
:10547000002318461437BD465DF8047B704700BF13
:10548000000001400004004000080040000C004003
:1054900000040140004001400018004080B485B085
:1054A00000AF786039600023FB607B6893F83C3084
:1054B000012B01D102233DE07B68012283F83C20CF
:1054C000FB6823F0FF023B68DB681343FB60FB686B
:1054D00023F440723B689B681343FB60FB6823F432
:1054E00080623B685B681343FB60FB6823F40062E7
:1054F0003B681B681343FB60FB6823F480523B68E6
:105500001B691343FB60FB6823F400523B685B6933
:105510001343FB60FB6823F480423B68DB69134361
:10552000FB607B681B68FA685A647B68002283F81A
:105530003C20002318461437BD465DF8047B7047B5
:1055400080B483B000AF786000BF0C37BD465DF813
:10555000047B704780B483B000AF786000BF0C3725
:10556000BD465DF8047B704780B582B000AF7860BF
:105570007B68002B01D1012342E07B6893F8413026
:10558000DBB2002B06D17B68002283F840207868CC
:10559000FDF728F97B68242283F841207B681B688B
:1055A000DA687B681B6822F40052DA60786800F0E1
:1055B00073F97B681B681A697B681B6822F4904248
:1055C0001A617B681B685A697B681B6822F02A0293
:1055D0005A617B681B68DA687B681B6842F400527A
:1055E000DA607B6800225A647B68202283F84120BD
:1055F0007B68202283F842207B6800225A630023C4
:1056000018460837BD4680BD80B58AB002AFF86045
:10561000B9603B601346FB8000237B61FB6893F815
:105620004130DBB2202B75D1BB68002B02D0FB8848
:10563000002B01D101236EE0FB6800225A64FB6855
:10564000212283F84120FDF7A9F97861FB68FA88E7
:105650009A84FB68FA88DA84FB689B68B3F5805FFC
:1056600008D1FB681B69002B04D10023FB61BB68D8
:10567000BB6103E0BB68FB610023BB612EE03B68BC
:1056800000937B6900228021F86800F048F8034607
:10569000002B05D0FB68202283F8412003233AE049
:1056A000FB69002B0BD1BB691B881A46FB681B6882
:1056B000C2F308025A60BB690233BB6107E0FB69B1
:1056C0001A78FB681B685A60FB690133FB61FB6851
:1056D000DB8C9BB2013B9AB2FB68DA84FB68DB8C03
:1056E0009BB2002BCBD13B6800937B690022402109
:1056F000F86800F014F80346002B05D0FB68202260
:1057000083F84120032306E0FB68202283F8412030
:10571000002300E0022318462037BD4680BD80B537
:1057200086B000AFF860B9603B601346FB713BE0A8
:105730003B6AB3F1FF3F37D0FDF730F902463B68D3
:10574000D31A3A6A9A4202D33B6A002B01D103234F
:105750003AE0FB681B68DB6803F00403002B23D0EE
:10576000BB68802B20D0BB68402B1DD0FB681B681A
:105770001B6803F00803082B16D100237B61FB682C
:105780001B681B687B61FB681B685B687B617B69CE
:10579000F86800F01DF8FB6808225A64FB680022D4
:1057A00083F8402001230FE0FB681B681A68BB6880
:1057B0001340BA689A420CBF01230023DBB21A4699
:1057C000FB799A42B4D0002318461837BD4680BDF5
:1057D00080B495B000AF78607B681B680C337B6346
:1057E0007B6B53E8003F3B633B6B23F49073FB649C
:1057F0007B681B680C33FA6C3A64FB63F96B3A6C98
:1058000041E80023BB63BB6B002BE5D17B681B68C1
:1058100014333B623B6A53E8003FFB61FB6923F0B2
:105820000103BB647B681B681433BA6CFA62BB6209
:10583000B96AFA6A41E800237B627B6A002BE5D1F2
:105840007B681B6B012B19D17B681B680C33FB60D9
:10585000FB6853E8003FBB60BB6823F010037B6428
:105860007B681B680C337A6CBA617B617969BA69B1
:1058700041E800233B613B69002BE5D17B68202296
:1058800083F842207B6800221A6300BF5437BD466C
:105890005DF8047B704700002DE9B04FC0B000AF49
:1058A000C7F8F400D7F8F4301B681B6923F44050A4
:1058B000D7F8F430D968D7F8F4301A6840EA010311
:1058C0001361D7F8F4309A68D7F8F4301B691A439B
:1058D000D7F8F4305B691A43D7F8F430DB69134327
:1058E000C7F8F830D7F8F4301B68DB6823F41641AA
:1058F00021F00C01D7F8F4301A68D7F8F8300B43D0
:10590000D360D7F8F4301B685B6923F44070D7F894
:10591000F4309969D7F8F4301A6840EA010353610A
:10592000D7F8F4301A688F4B9A4205D0D7F8F43084
:105930001A688D4B9A4204D1FEF71EF8C7F8FC0096
:1059400003E0FEF705F8C7F8FC00D7F8F430DB6990
:10595000B3F5004F40F00C81D7F8FC300022C7F8B7
:10596000E830C7F8EC20D7E93A4522462B46911893
:10597000B9655B41FB65D7E91623214612EB0108A7
:10598000294643EB01094FF000024FF000034FEAB4
:10599000C90343EA58734FEAC80290469946234622
:1059A00018EB0303C7F8E0302B4649EB0303C7F8B5
:1059B000E430D7F8F4305B680022C7F8D830C7F875
:1059C000DC20D7E936120B46DB183B65134642EB69
:1059D00003037B65D7E91423D7E93801FBF774F992
:1059E00002460B46614BA3FB02235B091C01D7F85F
:1059F000FC300022C7F8D030C7F8D420D7E934896A
:105A000042464B469118B9645B41FB64D7E91223C7
:105A1000414612EB010A494643EB010B4FF00002ED
:105A20004FF000034FEACB0343EA5A734FEACA022E
:105A300092469B4643461AEB0303C7F8C8304B46D1
:105A40004BEB0303C7F8CC30D7F8F4305B68002287
:105A5000C7F8C030C7F8C420D7E930120B46DB18AE
:105A60003B64134642EB03037B64D7E91023D7E979
:105A70003201FBF729F902460B4611463B4BA3FBCB
:105A800001235B09642202FB03F3CB1ADB0003F161
:105A90003202364BA3FB02235B095B0003F4F8736D
:105AA0001C44D7F8FC300022C7F8B830C7F8BC2037
:105AB000D7E92E8942464B469118B9635B41FB6397
:105AC000D7E90E2341465118396349464B417B6360
:105AD0004FF000024FF00003D7E90CAB5946CB0062
